:1000000000800020BD0100008D1A0000591A000078
:10001000591A0000591A0000591A0000591A000014
:10002000591A0000591A0000591A00008D1A0000D0
:100030008D1A0000591A00008D1A0000491A00009C
:100040008D1A00008D1A00008D1A00008D1A000014
:100050008D1A00008D1A00008D1A00008D1A000004
:100060008D1A00008D1A00008D1A00008D1A0000F4
:100070008D1A00008D1A00008D1A00008D1A0000E4
:100080008D1A00008D1A00008D1A00008D1A0000D4
:100090008D1A00008D1A00008D1A00008D1A0000C4
:1000A0008D1A00008D1A00008D1A00008D1A0000B4
:1000B0008D1A00008D1A00008D1A00008D1A0000A4
:1000C0008D1A00008D1A00008D1A00008D1A000094
:1000D0008D1A00008D1A00008D1A00008D1A000084
:1000E0008D1A00008D1A00008D1A00008D1A000074
:1000F0008D1A0000751F00008D1A0000F124000009
:100100008D1A00009D2900008D1A00008D1A000034
:100110008D1A00008D1A00008D1A00008D1A000043
:100120008D1A00008D1A00008D1A00008D1A000033
:100130008D1A00008D1A00008D1A00008D1A000023
:100140008D1A00008D1A00008D1A00008D1A000013
:100150008D1A00008D1A00008D1A00008D1A000003
:10016000DD080000890F00008D1A00008D1A0000C4
:100170008D1A00008D1A00008D1A00008D1A0000E3
:100180008D1A00008D1A00008D1A00008D1A0000D3
:100190008D1A00008D1A00008D1A00008D1A0000C3
:1001A0008D1A00008D1A00008D1A00008D1A0000B3
:1001B0008D1A00008D1A00008D1A0000564B4CF26B
:1001C000205210B51A804DF628121A8000BF00BFC9
:1001D00001F060FC514B4FF010621A60504A9A6077
:1001E000504ADA60A3F53043203B1A6812F480725B
:1001F00004D14D490A604FF4A8521A604B4B1A784B
:10020000110703D51A7842F008021A70484B2A22C7
:100210001A700023474A48499818884204D247492F
:10022000595899500433F5E7454A464B9A424FF0E6
:10023000000302D242F8043BF7E74349434A5958C6
:1002400099500433B3F5DE7FF7D1414B802103F899
:10025000011B40498B42F9D13F4B1A603F4B0A22A8
:100260001A70A3F5805324225A70A0221A709A792A
:100270009207FCD59A79D406FCD4394B9A7902F0CE
:100280000C02082AF9D105221A7143225A719A796F
:100290009006FCD5324B9A795106FBD5314A4FF086
:1002A000817111600521516020221A702C4B9B79BD
:1002B00003F00C030C2BF9D12B4B2C4A1A602C4B5E
:1002C0002C4A1A6000225A60072243F8042C2A4A5A
:1002D000C3F80C2D62B600F03FFD134B1B68DA0724
:1002E00005D5264800F0A8FC254B264A1A60264B67
:1002F0001B785B0609D5224C224A2368934204D11D
:100300001E4800F099FC0023236002F0A9FD01F0D3
:10031000C7FB01F0D7FAFEE70E200540308004400D
:10032000823F04000100002B14D0034002D007409C
:1003300000E007406087FF1F209CFF1FB4390000CA
:10034000209CFF1FAC9FFF1F000000000082FF1FCA
:1003500000E400E05FE400E008ED00E0005006404B
:10036000004006404480044004800440C010050062
:1003700014E000E03F190100000020203996CF561C
:100380001CE00340A5C3945A00F00740FFFFFFFFA5
:10039000FFFFFFFFFFFFFFFFFFFFFFFFFFFFFFFF6D
:1003A000FFFFFFFFFFFFFFFFFFFFFFFFFFFFFFFF5D
:1003B000FFFFFFFFFFFFFFFFFFFFFFFFFFFFFFFF4D
:1003C000FFFFFFFFFFFFFFFFFFFFFFFFFFFFFFFF3D
:1003D000FFFFFFFFFFFFFFFFFFFFFFFFFFFFFFFF2D
:1003E000FFFFFFFFFFFFFFFFFFFFFFFFFFFFFFFF1D
:1003F000FFFFFFFFFFFFFFFFFFFFFFFFFFFFFFFF0D
:10040000FFFFFFFFFFFFFFFFFFFFFFFFFEFFFFFFFD
:1004100010B5054C237833B9044B13B10448AFF33E
:1004200000800123237010BD209CFF1F00000000EE
:10043000B439000008B5064B1BB106480649AFF3B6
:1004400000800648036813B1054B03B1984708BD07
:1004500000000000B4390000249CFF1F209CFF1FF7
:100460000000000010B5154C204600F0E9F9A01D71
:1004700000F0E6F904F10C0000F0E2F904F11200DA
:1004800000F0DEF90E4B1A680E4B4FF4FA601A605A
:1004900000F04CFC0C4B187800F05EFB0B4B186026
:1004A0000B4B00F5FA7018600A4B002119600A4BDB
:1004B000BDE81040187800F0CFBB00BF689CFF1F5C
:1004C0006487FF1F8C9CFF1F0C9BFF1F9C9CFF1FC2
:1004D000609CFF1F649CFF1F6087FF1F38B51B4B8C
:1004E0001B4D18781B4C012100F0B6FB1A4B2A68F3
:1004F0001B6892FBF3F103FB1123204607212B60BD
:1005000000F098F9A01D082100F094F904F10C0006
:10051000092100F08FF904F112000A2100F08AF994
:100520000E4B0F4800221A602B680E4A5900013307
:1005300032F81140046001312B6032F811100A4A80
:1005400011600A4A11680A4A116038BD6087FF1FAE
:100550003C9CFF1F689CFF1F949CFF1F889CFF1FF3
:10056000989CFF1FF89AFF1F909CFF1F809CFF1F05
:100570008C9CFF1F08B5104B0121187800F09AFBE6
:100580000E4B0021187800F095FB0D4B05224FF41F
:10059000FA601A6000F0CAFB0A4B1A680A4B1A602C
:1005A0000A4B187800F0D8FA094B1860094B00F58F
:1005B000FA70186008BD00BF6087FF1FF49AFF1F24
:1005C000949CFF1F6487FF1F8C9CFF1F0C9BFF1FC9
:1005D0009C9CFF1F609CFF1FF0B52E4B2E4A1B6892
:1005E0001268934287B01BD12C4B187800F0B4FAF4
:1005F0002B4B2C4A19681060401A2B490C68A042FA
:1006000015461C4601DDFFF769FF284B2A6818785C
:10061000226000F041FB01283AD1FFF75FFF37E08D
:10062000234A126893422ED1224C234A2368116830
:100630001944224B1B68994202DDFFF713FF1EE0AD
:100640001F48204D30F811201F4F204E2A604B1CB0
:10065000023130F8133030F811103B6031600091F6
:1006600002A81B4902F022FC3A681A4B31680620A6
:1006700000FB023000F012F9286800F057FB2368F5
:100680000333236004E0144B0021187800F0E4FAEF
:1006900007B0F0BD8C9CFF1F6487FF1F0C9BFF1FE2
:1006A000609CFF1F9C9CFF1F6887FF1FF49AFF1F21
:1006B000809CFF1F889CFF1F989CFF1F909CFF1F22
:1006C0006C87FF1F409CFF1F5C9CFF1F849CFF1FCB
:1006D000A6360000689CFF1F6087FF1FF8B5144F07
:1006E000144E154D154C384600F030F8304600F0E9
:1006F0002DF8284600F02AF8204600F027F8104B85
:100700003A681A60BA889A803268C3F80620B288BC
:100710005A812A68DA60AA881A822268C3F81220ED
:10072000A288DA82074B1A68074B1A60F8BD00BF2F
:10073000449CFF1F4A9CFF1F509CFF1F569CFF1F9D
:10074000689CFF1F6487FF1F8C9CFF1F30B50D4CFA
:100750000023218803710C2201230B4207D10A4A8E
:1007600019432180118821EA0303138030BD0579E4
:100770005B000135013A05719BB2EED1FF23037195
:1007800030BD00BFA89CFF1FA49CFF1F2DE9F041B6
:100790001F4603790B2B044616463BD85FFA81F8B7
:1007A0004046012100F086FA25791C4B03F80580AC
:1007B0001B4B43F2BC4223F815201A4B012202FACC
:1007C00005F51A8815431D80174B1A6806EBC606F7
:1007D00007EBC70712F480022680678016D11968DC
:1007E00041F480011960A3F59033383B4FF6FF7157
:1007F00019605A609A6042F6A27243F8042C02F51E
:10080000803243F8042C094B20221A70084B4FF415
:1008100080721A602079BDE8F08100BFC29CFF1F82
:10082000AA9CFF1FA49CFF1F3C80044048E400E0FA
:1008300008E100E04FF408724FF41663FFF7A6BF1B
:1008400003790B2B10D8094A01219940C943138819
:1008500089B20B401380064A1088014011801BB9F1
:10086000044B4FF480721A60704700BFA49CFF1FB6
:10087000A89CFF1F88E100E0038801EBC1019942B9
:1008800003DB43889942B8BF0B4602790B2A9CBF11
:10089000014921F812307047AA9CFF1F13B5047953
:1008A0000B2C024616D8B1F5087F04DB02B0BDE878
:1008B0001040FFF7E1BF13885288009221EAE170EF
:1008C000B428A8BFB4200021B42200F0F1FF024BED
:1008D00023F8140002B010BDAA9CFF1F70B52E4A69
:1008E0002E4D118895F90030194111F0010F144671
:1008F00006D02B4A0021D05C00F0AEF90C232B70FF
:100900002088284C2178CBB25AB20B2A1FDC40FA3F
:1009100002F60131F607C9B2F5D52370204B01214B
:10092000985C00F099F923781F4A2B7059B2013373
:1009300032F811101D4A1068084410601C4A1068F3
:100940000144116042F6A37142F80C1C22E0174AE0
:1009500023701168C1F52F3303F54873B3F5617F38
:1009600005DB4EF660208342A8BF034601E04FF44A
:100970006173194411600E49086803440B600D4B04
:1009800042F6A371196012680B4B9A4203D9074AC9
:1009900000231360237070BDA49CFF1F109BFF1FDA
:1009A000C29CFF1FA69CFF1FAA9CFF1FA09CFF1FAD
:1009B0000C600340006003401FBF0200F0B5304BE5
:1009C0001B681B06FBD42F4B1B6813F08002F6D16B
:1009D00072B62D4B1978002950D02C4908684F6801
:1009E0008E68CD680C693844143130440968284455
:1009F00020440844C0F34E00254940F400400860FC
:100A0000C86A0F6B4E6B8D6BCC6B384440313044F1
:100A10000968284420440844C0F34E001D4940F4AE
:100A20000040086001F10811143151F8140C51F81C
:100A3000107C51F80C6C51F8085C51F8044C0968B2
:100A400038443044284420440844C0F34E0012493E
:100A500040F400400860C86A0F6B4E6B8D6BCC6B26
:100A60003844403130440968284420440844C0F3E5
:100A70004E000A4940F4004008601A7062B6F0BDAA
:100A800024B0034024B00B40CF9CFF1F38B003407C
:100A90002CB0034030B003402CB00B4030B00B40C2
:100AA00010B5204B2048214960221A70E1225A706B
:100AB0001F4B204A1C78204B082C01D1012402E056
:100AC0000A2C03D119240460132005E00C2C0CBF60
:100AD00015243D2404601220086014601860174B30
:100AE00017491B78174A03B101230B601360164B9B
:100AF000164A1978164B012901D880210BE00429E8
:100B000001D8842107E0082901D8852103E01029B4
:100B100094BF86218721116019600E4B01221A7043
:100B200010BD00BF0040074008B003400CB00340B8
:100B3000119BFF1F08B00B400CB00B40D29CFF1F55
:100B400020B0034020B00B40129BFF1F24B0034095
:100B500024B00B40CF9CFF1F0D2838B50FD91728A4
:100B600001D80E380AE0A0F11A03052B01D8093884
:100B700004E0A0F12203062B47D81838C0B2244B5A
:100B80001C5C244B1B780BB1FFF718FF210614D413
:100B900072B6214B214D1C6001232B7062B672B6D8
:100BA0001D4B1B681A0601D51D4B1FE02B78002B2F
:100BB000EFD062B600F08EFEF1E772B6194B1A4D17
:100BC0001A6814F0400F14BF22F0100242F0100215
:100BD0001A60164B04F03F021A6001232B7062B6B4
:100BE00072B6124B1B681B0608D5114B1868002300
:100BF0002B7062B60F4B1B78184138BD2B78002B39
:100C0000DCD062B600F066FEEAE7002038BD00BF27
:100C1000AF360000CF9CFF1F00B00340D19CFF1FE8
:100C200010B003400CB00B40D09CFF1F00B00B4035
:100C300010B00B40CE9CFF1F044B054900221A60E8
:100C40000A60044A106010221A60704714D00340F2
:100C500004D0034000D00340212810B518D80D4A15
:100C600052F8303093F880423CB1012211B183F840
:100C7000802010BD83F8002110BD02EBC000436846
:100C80001A6811B142F0030201E022F002021A6078
:100C900010BD00BFC8360000212806D8044B53F809
:100CA000303093F80002C0B270470020704700BF98
:100CB000C8360000212816D80B4A02EBC0030129D0
:100CC0005B6852F8302004D182F880124FF4A2728F
:100CD00008E0002082F8800211B94FF4807201E030
:100CE00040F203121A607047C836000072B60C4B0F
:100CF0000C491A680C4B1B68096862B6490102D599
:100D0000322A88BF0133C2F58C32482102F23F12E9
:100D1000B2FBF1F24FF47A7000FB0320704700BF82
:100D200018E000E004ED00E0D49CFF1F38B5044655
:100D3000FFF7DCFF054624B938BD013C0AD005F5B4
:100D40007A75FFF7D3FF401BB0F57A7FF5D200F03C
:100D5000C1FDF6E738BDFFFF1F4B4FF4000210B591
:100D60001A604FF080721A604FF000721A604FF0F4
:100D700080621A604FF000621A60184B184A194CD2
:100D8000002048F6FF7118605960282313609360B3
:100D90001361936113629362136393630922226068
:100DA00004F58054043420606160A360236144F83A
:100DB000042C04F5FE2420600B4801600B490B60F5
:100DC0008B600B4B1A60FFF76BFEFA20FFF7AEFF4C
:100DD000BDE8104000F0D6BB08E100E0048003400D
:100DE0000C8003400080034008800B400C800B40C7
:100DF00000800B40F0B50C4B0C4C1A7842F0020509
:100E000004EBC50682F00102706009481A7006788A
:100E1000002E0CBF8827C82786F0010647EA01414B
:100E2000067044F83510F0BD409DFF1F0080FF1F85
:100E3000B89DFF1F431E032B10B510D872B6094A88
:100E400052F8230048B1416842F82310064A01884D
:100E500032F81340611A22F8131062B610BD002058
:100E600010BD00BF309DFF1F949FFF1F0138032856
:100E70000AD872B6054B53F82030002013B1013068
:100E80005B68FBE762B6704700207047849DFF1FD8
:100E900010B572B60123174A1A4412F8012C120732
:100EA0001CD59900144A52F831402CB902EB431377
:100EB00008305860114B09E041F0010152F831400F
:100EC00064B902EBC103083058600D4B42F8313071
:100ED0000C4B1A78013A1A7062B610BD0133052B1B
:100EE000D9D162B6074B00221A70BDE8104000F05D
:100EF000A7BB00BFD83700000080FF1F880040005C
:100F0000C8004000AE9DFF1F431E032B30B532D8F2
:100F1000194A400140F01000104472B6174CE25CD0
:100F2000032A09D8DFE802F0160218050830022269
:100F300013E00830042210E01148124A50F8234010
:100F400014B940F8231002E052F82300416042F83F
:100F500023100FE0032200E00522E25410F0080FF6
:100F600001F108030A8843600CBF8823C82343EAC1
:100F70000243036062B630BD0080FF1FEC9CFF1F80
:100F8000849DFF1F949DFF1F2DE9F84FAB4F3C78C8
:100F9000E4B214F0040F3D4619D0A94B1B78A3B15D
:100FA000A84A117801F0FF0321B1013BDBB21370B5
:100FB00003B900BEA44A117801F0FF0329B1013B37
:100FC000DBB213700BB900F04FFC04233B7004F04C
:100FD000080303F0FF02002B00F067829B4B9C4C40
:100FE0001A78D2B215094FEA920840F0E48104EB76
:100FF000C803596854F83830C3F38303013B0C2B02
:1010000000F2D681DFE813F095019501D401D401F7
:10101000D401D401D401D401B001D401D401D4014C
:101020000D008C4D0A684B688B486B6001218B4B1F
:1010300044F838302A60DFF85082017092B240F2F2
:10104000816000238242C8F800302361A36117D871
:10105000B2F5D06F80F01E81B2F5817F00F0CF80B5
:1010600006D8802A00F0BA80822A00F0BB8031E1E5
:1010700040F202339A4200F0D180B2F5A06F1CE03A
:1010800042F22100824200F051810ED8B2F5086F81
:1010900000F09E80B2F5106F40F01C81684B6C4EE2
:1010A000AA781A7006F180090AE042F221218A42E8
:1010B00000F0088142F221339A4200F00F8109E1E9
:1010C000336A1B0603D5706A083800F0B9FA08368F
:1010D0004E45F5D10026B146DFF8B0A156F80A001A
:1010E00028B1D0F804B000F0ABFA5846F8E74AF857
:1010F00006005B4BDFF898A1F05056F80A0028B1C3
:10110000D0F804B000F09CFA5846F8E7554B4AF87E
:101110000600F050544B23F81900544B19F80320E3
:10112000023A032A08D8DFE802F00204020400228F
:1011300000E0012203F8092009F10109B9F1040FC7
:1011400006F10406C8D14A4B00221A7001269A46BD
:10115000484A494B3244334412F8012C9B0012F0A8
:10116000080F1A704FEA860925D000F04BFA38B103
:1011700004EB461308305860404B44F8393006E021
:101180009AF8003044F8390001338AF8003000F052
:1011900039FA49F0010338B104EBC302083050605A
:1011A0002E4A44F8332006E044F833009AF8003021
:1011B00001338AF8003049F00202013649F0030990
:1011C0000023052E44F8323044F83930C0D186E08F
:1011D0001B4B2B4C1B7823700B4683E0284C237051
:1011E00063707EE0AA88042A74D8254C920023708C
:1011F0006370244B9B5C9E0773D5217071E0AA88B5
:1012000002F07F02042A65DC6B88002B62D191001A
:101210001C4A0A44117821F0020159E0AA8802F020
:101220007F02042A56DC6B88002B53D19100154AAB
:101230000A44117841F002014AE000BF80200740D3
:10124000B79DFF1F419DFF1FB99DFF1F90200740C5
:101250000080FF1FA49DFF1FB89DFF1FC800400016
:10126000DC9CFF1F949DFF1F949FFF1FEC9CFF1FA2
:10127000AE9DFF1FD837000030C801108800400025
:10128000AF9DFF1FC0200740D89CFF1F309DFF1F50
:10129000849DFF1F6A88A9889F4B53F8084CA3F1CF
:1012A0000C00BCB133F80C6C964209D133F80A6CCF
:1012B0008E4205D1120A032A0CBF2378038911E05C
:1012C0000C33EAE7954A1168954A1160A978954A66
:1012D000117004E0944B0F221A7027E000231C4683
:1012E00000E00223EE88B34238BF1E46402E34BFD2
:1012F0003546402520462946FFF77CFD761B2C44C9
:1013000003D1402D12D1354603E0402E34BF35467F
:10131000402520462946FFF76DFD761B2C4401D160
:10132000402D03D1814AC8F8004016800122804B2D
:101330003DE0804B1A8842F221039A4210D10023EB
:101340007D4AC85C98540133072BF9D11368862B6A
:1013500002D17A4B0F221A7000200146FFF74AFD96
:10136000774B44F8383023E0764E3568B5B1DFF876
:10137000BC81B8F80090B9F1400F34BF4C4640240E
:1013800028462146FFF736FDC4EB09039BB2A8F8B7
:1013900000300BB9402C00D12B193360654B1A88F3
:1013A000B2F5A06F04D100225A709A78664B1A7079
:1013B00001225F4B6CE004EBC806013D736802F04C
:1013C0000802A3F10800EDB202F0FF01002A36D0B6
:1013D00000F036F95D485E4B50F82520EAB15168BF
:1013E00040F8251002F108017160595D03290BD8FE
:1013F000DFE801F002040608032104E0022102E014
:10140000052100E00421595516F0080F12880CBF81
:101410008823C82343EA024342E05A5D032A07D8DF
:10142000DFE802F040400204002206E0012204E06E
:1014300016F0080F0CBF022203225A5532E054F86E
:101440003820120C23F8082C22B3DFF834E123F8FB
:10145000061C43F8041C5EF825303E4913B94EF8CB
:10146000250002E051F8253058603B4B41F825003B
:1014700033F815100A4423F8152000F0C3F810B112
:101480000830706006E0354B44F838001A780132B5
:101490001A7007E02A4B324A16F0080F08BF1346AD
:1014A00044F8383008233B7070E5E0071FD5204929
:1014B0002B482C4C02230B702B4B1A702B4B1860B3
:1014C00098602B48D8601A619A615C60164B0D20B9
:1014D00018702848FF2303702B700274264A13707B
:1014E000264B9F221A7001230B70BDE8F88F21064E
:1014F00004D50D4B0D221A7080232B70A20705D541
:101500001C4B1A78D2B21A7002232B70E30644BF28
:1015100010232B70BDE8F88FE8370000D49CFF1F24
:10152000A49FFF1FC89DFF1FC0200740AC9DFF1F49
:1015300094200740A49DFF1F9C9FFF1F419DFF1FFC
:10154000C8004000D89CFF1F98200740849DFF1FC3
:10155000EC9CFF1FDC9CFF1F949FFF1FAE9DFF1F95
:1015600088004000F09CFF1F409DFF1F0080FF1F70
:10157000449DFF1F882007408C200740842007409F
:10158000309DFF1F08B501F071FA00221A4B0021AF
:10159000D15098180832882A4160F7D1174A10684C
:1015A00040F48020106002F528326832C3F307202F
:1015B0001070C3F307401B0E10751376FF2302F85B
:1015C0001C3C02F8143C02F88C3C012302F8083C55
:1015D00082F8641002F8183C094B70226FF45071C5
:1015E0001A700B444FF400721A6003F1C04303F504
:1015F000C82310221A7008BD0080FF1F34800440E9
:1016000049E400E072B60C4A1168B1FA81F30B2B81
:1016100002D962B6002070474FF00040D84021EA5E
:101620000001116062B6054948225343C8180022E0
:10163000CA504260704700BF149BFF1F0084FF1F09
:101640000C4B4822C31AB3FBF2F30B2B11D80A4AF6
:10165000127822B1094A12780AB1FFF719BC72B6A2
:10166000074A4FF0004121FA03F311681943116052
:1016700062B670470084FF1FAE9DFF1FB79DFF1F1E
:10168000149BFF1F10B5104C23686BB12068428873
:10169000531C0244147A0288934212D3FFF7D0FFFE
:1016A000094B00221A600DE0084B1B7813B94FF06C
:1016B000FF3010BD0320FFF7BDFB20600028E5D1FF
:1016C000F5E74380204610BDC49DFF1FB79DFF1F57
:1016D00010B50B4C236813B123686BB902E0094BBA
:1016E0001B7813B94FF0FF3010BD0320FFF7A2FBAA
:1016F00020600028F0D1F5E75A881344187A10BD0D
:10170000C49DFF1FB79DFF1F044B9888044B1B68A7
:101710001BB11A885B88D31A18447047949FFF1F27
:10172000C49DFF1F2DE9F8432D4E012307460C46AB
:101730003370002C4FD02B4D2B68A9462BBB48F69D
:101740000148294B1B7803F0FF020BB9327015E0FA
:101750000420FFF78BFB072808D801233370FFF71D
:1017600051FFC9F8000080B91D4B1870B8F101088D
:101770001E4B01D01A782AB101221A704FF0FF30A7
:10178000BDE8F88300F0A6F8DBE72968174A488827
:1017900000231370C0F14002944238BF224600F18A
:1017A000080C10448C444880A41A934204D0F85C7E
:1017B0000CF803000133F8E71F444B883F2B06D990
:1017C00040230B800420FFF79FFB00232B60084B76
:1017D00005221A70ADE734702046BDE8F88300BFDB
:1017E000BA9DFF1FBC9DFF1FB79DFF1FC09DFF1F20
:1017F000B99DFF1F07B502AB012103F8010D184683
:10180000FFF790FF03B05DF804FBFFFF2DE9F04107
:10181000114B1B78F3B1114E114B3468114D012758
:101820001F7098464CB1002763882F7004202380D6
:101830002146FFF769FB376009E0FFF7E3FE014649
:1018400020B104202C70FFF75FFB00E02F70002315
:1018500088F80030BDE8F081B79DFF1FBC9DFF1FD9
:10186000BA9DFF1FB99DFF1F38B50E4B1B7803F0C3
:10187000FF05ABB90C4C216831B14B880B800420BB
:10188000FFF742FB256038BDFFF7BCFE014620B1E3
:101890000420BDE83840FFF737BB044B01221A7023
:1018A00038BD00BFBA9DFF1FBC9DFF1FB99DFF1F24
:1018B00010B5029C401AE41A4443521A94FBF2F009
:1018C000184410BD08B5FEF755FEFEF785FE00F082
:1018D00001F8FAE710B50E4C2378BBB90123237049
:1018E000FFF712FF08B101F08EFA00F0CDFA08B14F
:1018F00001F067F900F086FD08B101F0E4F900F0AD
:10190000E9FF08B101F061FA0023237010BD00BFA8
:10191000C99DFF1F844641EA000313F003036DD104
:10192000403A41D351F8043B40F8043B51F8043BA2
:1019300040F8043B51F8043B40F8043B51F8043BA9
:1019400040F8043B51F8043B40F8043B51F8043B99
:1019500040F8043B51F8043B40F8043B51F8043B89
:1019600040F8043B51F8043B40F8043B51F8043B79
:1019700040F8043B51F8043B40F8043B51F8043B69
:1019800040F8043B51F8043B40F8043B51F8043B59
:1019900040F8043B51F8043B40F8043B51F8043B49
:1019A00040F8043B403ABDD2303211D351F8043BE9
:1019B00040F8043B51F8043B40F8043B51F8043B29
:1019C00040F8043B51F8043B40F8043B103AEDD298
:1019D0000C3205D351F8043B40F8043B043AF9D2E9
:1019E000043208D0D2071CBF11F8013B00F8013BBC
:1019F00001D30B8803806046704700BF082A13D3C9
:101A00008B078DD010F003038AD0C3F10403D21AE0
:101A1000DB071CBF11F8013B00F8013B80D331F814
:101A2000023B20F8023B7BE7043AD9D3013A11F894
:101A3000013B00F8013BF9D20B7803704B784370FF
:101A40008B78837060467047024B1A6801321A60C7
:101A5000704700BFD49CFF1F08B50B4C2368580388
:101A600001D5FFF791FA2368590501D500F082FAF4
:101A700023681A0501D500F03BFD2368DB04ECD593
:101A800000F08CFFE9E700BF3480044008B5FFF7A1
:101A9000E3FFFFFF014B10221A8070470020054032
:101AA0007047FFFF024A13681844106018467047D9
:101AB000189BFF1FEFF313839BB9EFF3108098B9C6
:101AC000EFF3058323B10F2B04D9084A985C01E09A
:101AD0004FF48070EFF311833BB1834238BF184657
:101AE00070474FF0FF30704718467047F0E300E052
:101AF000194B1A6842F480621A60184A0023137066
:101B0000174A1370174A1370174A1370174A137045
:101B1000174B40F213321A604FF451725A60154B52
:101B2000C0F344321A70C0F347125A7002210422E3
:101B300000F01F0098729A70D9745A7588221A742E
:101B40003C22DA700C4B40226FF44A711A700B443D
:101B50004FF400521A60704734800440529EFF1FB9
:101B6000D19DFF1F589EFF1F539EFF1FD09DFF1F3B
:101B700040A0044000A006402DE400E0134A937802
:101B800000F0030103F0EC030B43410748BF43F0AF
:101B90001003937000F00F03042B0C4903D18B79D1
:101BA00043F040038B715379C20603F0EF03074AF9
:101BB00048BF43F0100353719379810603F0EF039C
:101BC00048BF43F010039371704700BF00A0064068
:101BD00008B5114B1B685B0500D408BD0F4B1A7884
:101BE00002F0FF0312B1FFF775FEF7E70C4A4FF45E
:101BF000005111600B4A0C49D37040F203120A6085
:101C00004A600A4A13700A4A13700A4B1B680BB1E8
:101C100001221A7008BD00BF34800440D09DFF1F10
:101C200084E100E000A0064040A00440529EFF1F57
:101C3000D19DFF1FCC9DFF1F38B50446094B1B7873
:101C400003F0FF05002BF9D120460121FFF732F800
:101C500020462946FFF700F8034B53F83420034B86
:101C60001A6038BDD09DFF1FC8360000549EFF1F6C
:101C70000D4A38B5146814F480624FF0000410D097
:101C800021280A4D0AD80A4A012152F830302B6027
:101C9000FFF710F82B681C70012038BD2C6020461F
:101CA00038BD104638BD00BF34800440CC9DFF1FB6
:101CB000C83600000E4B1B6813F4806316D0122840
:101CC0000C4B03D140F202310B4A04E0142809D135
:101CD0000A4A40F2023111605A7B42F001025A7303
:101CE000012070475A7B02F0FE025A7300207047B1
:101CF0003480044000A006400CA0044014C00440FE
:101D0000F8B51D4B1B685A05064633D51B4B1B689F
:101D10000BB101221A701A4B1C780134402C1F465B
:101D200028BF0024174D2B78A34218D1FFF7C2FE1D
:101D300040280FDC144A13791B06F3D52B7813497E
:101D40000133402B28BF0023C95CDBB2C9B2D1717B
:101D50002B70E7E7FF28E5DDFFF7BCFDE2E70B4B63
:101D6000F6B21E550A4B01221A70074BE4B2BC2290
:101D70003C70DA70F8BD00BF34800440549EFF1FF1
:101D8000589EFF1F539EFF1F00A00640D29DFF1FBD
:101D9000D09DFF1F274B1B685A052DE9F0470746CA
:101DA0008A4644D5244B1B680BB101221A703D466C
:101DB00007EB0A039D4237D2DFF890801F4E98F858
:101DC000004096F800900134402C28BF00245FFAB0
:101DD00089F9A1451DD11A4BBC22DA70FFF76AFEC2
:101DE00040280FDC164A13791B060FD533781549A6
:101DF0000133402B28BF0023C95CDBB2C9B2D171CB
:101E0000337003E0FF2801DDFFF764FD33784B45B5
:101E1000E4D00C4B15F8012B1A550B4B0122E4B200
:101E20001A7088F80040C3E7054BBC22DA70BDE8A1
:101E3000F08700BF34800440549EFF1F539EFF1F55
:101E400000A00640D29DFF1FD09DFF1F589EFF1F80
:101E500008B5034B1B7813B1FFF73CFDF9E708BD4C
:101E6000D09DFF1F064A074B1B781078DBB2C0B22B
:101E700083422CBF3F3000F1FF30C01A704700BFD3
:101E8000539EFF1F589EFF1F054B1878054B1B786C
:101E9000C0B2DBB2984238BF4030C01A704700BFB2
:101EA000529EFF1FD19DFF1F10B5104B10491A788D
:101EB0000B78D2B2DBB29A4214D00133402B28BF48
:101EC00000230C48DCB2C05C0C700B490968C0B23E
:101ED00051B19A4238BF4032D31A1A2B04DC002386
:101EE0000B7010BD4FF0FF3010BD00BF529EFF1FA2
:101EF000D19DFF1F129EFF1FCC9DFF1F084B1A781C
:101F0000084B1B78DBB29A4207D00133402B28BF25
:101F10000023054AD05CC0B270474FF0FF307047D5
:101F2000529EFF1FD19DFF1F129EFF1F0C4B1B686F
:101F30005B0514D50B4BDA7802F0CB02DA70402245
:101F40005A74DA7842F03402DA70074B1A78074B89
:101F5000D2B21A70064B1B680BB100221A70704780
:101F60003480044000A00640D19DFF1F529EFF1FF9
:101F7000CC9DFF1F30B5374B1A7912F0300F31D09E
:101F800072B69A7D02F0FF0022B9DA7940225A74C3
:101F900062B627E062B6304A304913780978DBB27E
:101FA000C9B214462B4AD5795A1C402A28BF0022B0
:101FB0008A42EDB202D02A4B9D541346421E12F0C3
:101FC000FF00EFD1DAB22270264A126852B18B427A
:101FD00036BFC1F14001C1EB03035B18272BC4BF1F
:101FE000012313701B4BD978C9B20C0620D51B797D
:101FF00018061DD51C4B1D4A1D781378EDB2DBB2B7
:102000001046AB420CD0134A0133402B1479184CC4
:1020100028BF0023E45CE4B2D471127D072AF0D912
:10202000DBB203700B4B1A79120644BF7C22DA70C4
:102030004B060ED5074B1A7912F0400F194608D0FF
:102040000C4B00221A700C4B1B6803B11A703C2316
:10205000CB7030BD00A00640529EFF1FD19DFF1FD8
:10206000129EFF1FCC9DFF1F589EFF1F539EFF1FF8
:10207000D29DFF1FD09DFF1F549EFF1F194B1A6852
:1020800042F400621A60184A00231370174A137052
:10209000174A1370174A1370174A1370174B40F200
:1020A00013321A604FF451725A60154BC0F3443228
:1020B0001A70C0F347125A7000F01F000422022168
:1020C00098729A70D9745A7588221A743C22DA7000
:1020D0000C4B40221A70A3F22B334FF400421A60CB
:1020E000704700BF34800440CA9EFF1F619EFF1FDF
:1020F000D09EFF1FCB9EFF1F609EFF1F0CB00440B1
:1021000000B006402FE400E0134A937800F003018A
:1021100003F0EC030B43410748BF43F010039370F7
:1021200000F00F03042B0C4903D18B7943F04003DB
:102130008B715379C20603F0EF03074A48BF43F09F
:10214000100353719379810603F0EF0348BF43F006
:1021500010039371704700BF00B0064008B5114BE3
:102160001B681B0500D408BD0F4B1A7802F0FF0353
:1021700012B1FFF7AFFBF7E70C4A4FF400411160D3
:102180000B4A0C49D37040F203120A604A600A4AB3
:1021900013700A4A13700A4B1B680BB101221A70A4
:1021A00008BD00BF34800440609EFF1F84E100E052
:1021B00000B006400CB00440CA9EFF1F619EFF1F86
:1021C0005C9EFF1F38B50446094B1B7803F0FF05E2
:1021D000002BF9D120460121FEF76CFD204629464F
:1021E000FEF73AFD034B53F83420034B1A6038BD19
:1021F000609EFF1FC8360000CC9EFF1F0D4A38B5F9
:10220000146814F400624FF0000410D021280A4D25
:102210000AD80A4A012152F830302B60FEF74AFDF5
:102220002B681C70012038BD2C60204638BD10463C
:1022300038BD00BF348004405C9EFF1FC8360000DC
:102240000B4B1B6813F4006310D01728094B09D1FE
:10225000094A40F2023111605A7B42F001025A737E
:10226000012070475A7B02F0FE025A73002070472B
:102270003480044000B0064008B00440F8B51D4B5F
:102280001B681A05064633D51B4B1B680BB1012290
:102290001A701A4B1C780134282C1F4628BF0024C2
:1022A000174D2B78A34218D1FFF704FC40280FDC10
:1022B000144A13791B06F3D52B7813490133282BC5
:1022C00028BF0023C95CDBB2C9B2D1712B70E7E72C
:1022D000FF28E5DDFFF7FEFAE2E70B4BF6B21E55ED
:1022E0000A4B01221A70074BE4B2BC223C70DA7030
:1022F000F8BD00BF34800440CC9EFF1FD09EFF1F5E
:10230000CB9EFF1F00B00640629EFF1F609EFF1F16
:10231000274B1B681A052DE9F04707468A4644D526
:10232000244B1B680BB101221A703D4607EB0A03D0
:102330009D4237D2DFF890801F4E98F8004096F803
:1023400000900134282C28BF00245FFA89F9A145A8
:102350001DD11A4BBC22DA70FFF7ACFB40280FDC12
:10236000164A13791B060FD5337815490133282BEC
:1023700028BF0023C95CDBB2C9B2D171337003E05E
:10238000FF2801DDFFF7A6FA33784B45E4D00C4B6C
:1023900015F8012B1A550B4B0122E4B21A7088F87C
:1023A0000040C3E7054BBC22DA70BDE8F08700BFF0
:1023B00034800440CC9EFF1FCB9EFF1F00B0064020
:1023C000629EFF1F609EFF1FD09EFF1F08B5034B3C
:1023D0001B7813B1FFF77EFAF9E708BD609EFF1F77
:1023E000064A074B1B781078DBB2C0B283422CBF81
:1023F000273000F1FF30C01A704700BFCB9EFF1F8F
:10240000D09EFF1F054B1878054B1B78C0B2DBB27E
:10241000984238BF4030C01A704700BFCA9EFF1FA5
:10242000619EFF1F10B5104B10491A780B78D2B27D
:10243000DBB29A4214D00133402B28BF00230C4852
:10244000DCB2C05C0C700B490968C0B251B19A4251
:1024500038BF4032D31A1A2B04DC00230B7010BD96
:102460004FF0FF3010BD00BFCA9EFF1F619EFF1FCF
:102470008A9EFF1F5C9EFF1F084B1A78084B1B7833
:10248000DBB29A4207D00133402B28BF0023054A14
:10249000D05CC0B270474FF0FF307047CA9EFF1F3C
:1024A000619EFF1F8A9EFF1F0C4B1B681B0514D5E6
:1024B0000B4BDA7802F0CB02DA7040225A74DA78E9
:1024C00042F03402DA70074B1A78074BD2B21A7016
:1024D000064B1B680BB100221A7070473480044011
:1024E00000B00640619EFF1FCA9EFF1F5C9EFF1F3B
:1024F00030B5374B1A7912F0300F31D072B69A7D61
:1025000002F0FF0022B9DA7940225A7462B627E05D
:1025100062B6304A304913780978DBB2C9B2144642
:102520002B4AD5795A1C402A28BF00228A42EDB294
:1025300002D02A4B9D541346421E12F0FF00EFD1E9
:10254000DAB22270264A126852B18B4236BFC1F10C
:102550004001C1EB03035B18272BC4BF0123137099
:102560001B4BD978C9B20C0620D51B7918061DD58E
:102570001C4B1D4A1D781378EDB2DBB21046AB42FE
:102580000CD0134A0133282B1479184C28BF002390
:10259000E45CE4B2D471127D072AF0D9DBB2037097
:1025A0000B4B1A79120644BF7C22DA704B060ED50B
:1025B000074B1A7912F0400F194608D00C4B002235
:1025C0001A700C4B1B6803B11A703C23CB7030BDE2
:1025D00000B00640CA9EFF1F619EFF1F8A9EFF1F1C
:1025E0005C9EFF1FD09EFF1FCB9EFF1F629EFF1FA2
:1025F000609EFF1FCC9EFF1F174B1A6842F480524B
:102600001A60164A00231370154A1370154A137086
:10261000154A1370154A1370154A40F213311160B0
:102620004FF451715160134AC0F344311170C0F33B
:10263000471100F01F0051709072937013742C2397
:10264000D3700D4B40226FF44B711A700B444FF452
:1026500000321A60704700BF34800440429FFF1F61
:10266000D99EFF1F489FFF1F439FFF1FD89EFF1F3C
:1026700008C0044000C0064031E400E0134A9378EB
:1026800000F0030103F0EC030B43410748BF43F0A4
:102690001003937000F00F03042B0C4903D18B79C6
:1026A00043F040038B715379C20603F0EF03074AEE
:1026B00048BF43F0100353719379810603F0EF0391
:1026C00048BF43F010039371704700BF00C006403D
:1026D00008B5114B1B68DB0400D408BD0F4B1A78FA
:1026E00002F0FF0312B1FFF7F5F8F7E70C4A4FF4D9
:1026F000003111600B4A0C49D37040F203120A609A
:102700004A600A4A13700A4A13700A4B1B680BB1DD
:1027100001221A7008BD00BF34800440D89EFF1FFC
:1027200084E100E000C0064008C00440429FFF1F53
:10273000D99EFF1FD49EFF1F38B50446094B1B7856
:1027400003F0FF05002BF9D120460121FEF7B2FA74
:1027500020462946FEF780FA034B53F83420034BFA
:102760001A6038BDD89EFF1FC8360000449FFF1F67
:102770000D4A38B5146814F480524FF0000410D09C
:1027800021280A4D0AD80A4A012152F830302B601C
:10279000FEF790FA2B681C70012038BD2C60204693
:1027A00038BD104638BD00BF34800440D49EFF1FA2
:1027B000C83600000B4B1B6813F4805310D00E2852
:1027C000094B09D1094A40F2023111605A7B42F0AB
:1027D00001025A73012070475A7B02F0FE025A73BD
:1027E000002070473480044000C0064004C004400C
:1027F000F8B51D4B1B68DA04064633D51B4B1B6826
:102800000BB101221A701A4B1C780134282C1F4678
:1028100028BF0024174D2B78A34218D1FFF74AF99F
:1028200040280FDC144A13791B06F3D52B78134983
:102830000133282B28BF0023C95CDBB2C9B2D17198
:102840002B70E7E7FF28E5DDFFF744F8E2E70B4BE5
:10285000F6B21E550A4B01221A70074BE4B2AC22A5
:102860003C70DA70F8BD00BF34800440449FFF1F05
:10287000489FFF1F439FFF1F00C00640DA9EFF1FB7
:10288000D89EFF1F38B504464518AC4204D014F852
:10289000010BFFF7ADFFF8E738BDFFFF08B5034BAD
:1028A0001B7813B1FFF716F8F9E708BDD89EFF1F94
:1028B000064A074B1B781078DBB2C0B283422CBFAC
:1028C000273000F1FF30C01A704700BF439FFF1F41
:1028D000489FFF1F054B1878054B1B78C0B2DBB231
:1028E000984238BF4030C01A704700BF429FFF1F58
:1028F000D99EFF1F10B5104B10491A780B78D2B231
:10290000DBB29A4214D00133402B28BF00230C487D
:10291000DCB2C05C0C700B490968C0B251B19A427C
:1029200038BF4032D31A1A2B04DC00230B7010BDC1
:102930004FF0FF3010BD00BF429FFF1FD99EFF1F09
:10294000029FFF1FD49EFF1F084B1A78084B1B786D
:10295000DBB29A4207D00133402B28BF0023054A3F
:10296000D05CC0B270474FF0FF307047429FFF1FEE
:10297000D99EFF1F029FFF1F054B1A78054BD2B24D
:102980001A70054B1B680BB100221A70704700BF0C
:10299000D99EFF1F429FFF1FD49EFF1F10B5294BDA
:1029A0001A79920620D5284AD87913782749013315
:1029B000402B097828BF00238B42C0B203D02449A2
:1029C000C854D9B21170234A116869B1224A1278E9
:1029D000D2B2934236BFC2F14002C2EB03039B184E
:1029E000272BC4BF01230B70164AD178C9B20C063D
:1029F00016D51379180613D5184B17481C78037889
:102A0000DBB29C4202D16C23D37009E00133282B46
:102A100028BF0023124CE45CDBB2E4B2D471037033
:102A20004B060ED5074B1A7912F0400F194608D005
:102A30000C4B00221A700C4B1B6803B11A702C232C
:102A4000CB7010BD00C00640429FFF1FD99EFF1FE4
:102A5000029FFF1FD49EFF1F439FFF1F489FFF1F22
:102A6000DA9EFF1FD89EFF1F449FFF1F1FB572B63F
:102A7000154B70221A70154A412111700F2102F86E
:102A8000011C80221A701A781206FCD5104B1868A7
:102A900062B6104B984298BF0A2301AC98BF5843C6
:102AA00021460A2200F0BEF90023E15C0A4A29B15E
:102AB00002EB430001330A2B4180F6D101335B0066
:102AC000137004B010BD00BF0000024007000240B8
:102AD000080002407F969800A49BFF1F08B503687A
:102AE000C9B21B68984708BD08B50368C9B21B681E
:102AF000984708BD08B50368C9B21B68984708BD68
:102B000008B50368C9B21B68984708BD034800EBC5
:102B10005100B0FBF1F0FEF7EBBF00BF0044950899
:102B200010B5064800EB51001446B0FBF1F0FEF77B
:102B3000DFFF2046BDE81040FFF720B800449508AD
:102B4000FFF746B80846FFF777B808B50846FFF71D
:102B50008FF8003018BF012008BD08B50846FFF700
:102B6000A9F8003018BF012008BDFFF78DB9FFF7A5
:102B7000C5B9FFF799B9FFF76BB9FFF7D7B9FFF7F9
:102B800071B908B50846FFF7BBF8012008BD08B5C4
:102B90000846FFF7B5F8012008BD10B508461446F1
:102BA0001146FFF7F7F8204610BD38B508460D4628
:102BB00000F0A0F9044621462846FFF7EBF820462E
:102BC00038BD7047044B00221A714FF47A711A73A2
:102BD000024A99601A6070474C9FFF1F3838000006
:102BE00008B50368C9B21B68984708BD08B50368F3
:102BF000C9B21B68984708BD08B50368C9B21B680D
:102C0000984708BD08B50368C9B21B68984708BD56
:102C1000034800EB5100B0FBF1F0FFF72FBA00BF03
:102C20000044950810B5064800EB51001446B0FB6F
:102C3000F1F0FFF723FA2046BDE81040FFF764BA31
:102C400000449508FFF78ABA0846FFF7BBBA08B5F3
:102C50000846FFF7D3FA003018BF012008BD08B5B9
:102C60000846FFF7EDFA003018BF012008BDFFF756
:102C7000C9BBFFF701BCFFF7D5BBFFF7A7BBFFF749
:102C800013BCFFF7ADBB08B50846FFF7F7FA012004
:102C900008BD08B50846FFF7F1FA012008BD10B5D8
:102CA000084614461146FFF733FB204610BD38B5E1
:102CB00008460D4600F01EF9044621462846FFF757
:102CC00027FB204638BD7047044B00221A714FF491
:102CD0007A711A73024A99601A6070475C9FFF1FED
:102CE0009038000008B50368C9B21B68984708BD52
:102CF00008B50368C9B21B68984708BD08B50368E2
:102D0000C9B21B68984708BD08B50368C9B21B68FB
:102D1000984708BD034800EB5100B0FBF1F0FFF706
:102D20006BBC00BF00A24A0410B5064800EB51007E
:102D30001446B0FBF1F0FFF75FFC2046BDE8104001
:102D4000FFF79CBC00A24A04FFF7C2BC0846FFF78D
:102D5000F3BC08B50846FFF70BFD003018BF012093
:102D600008BD08B50846FFF725FD003018BF012053
:102D700008BDFFF7AFBDFFF7E7BDFFF7BBBDFFF72E
:102D80008DBDFFF7F9BDFFF793BD08B50846FFF706
:102D90002FFD012008BD08B50846FFF729FD0120D9
:102DA00008BD10B5084614461146FFF76BFD2046D6
:102DB00010BD38B508460D4600F09CF80446214683
:102DC0002846FFF75FFD204638BD7047044B0022C0
:102DD0001A714FF47A711A73024A99601A60704737
:102DE0006C9FFF1FE8380000FEF78EBCFEF74ABC60
:102DF000FEF76EBCFEF70ABD0846FEF7FBBC0846B0
:102E00001146FEF78FBC7047044B00221A714FF435
:102E10007A711A73024A99601A6070477C9FFF1F8B
:102E20004039000010B50023B0FBF2F402FB14009F
:102E3000092894BF30303730C0B2C85420460CB196
:102E40000133F1E7CA18547022469A4206DA885CC8
:102E5000CC5C8C54C8540132013BF6E7084610BDE7
:102E600070B50E4B0E4DED1AAD1000241E46AC424F
:102E700004D056F8242090470134F8E700F088FD8C
:102E8000084D094BED1AAD1000241E46AC4204D08B
:102E900056F8242090470134F8E770BD9C390000B3
:102EA0009C390000B43900009C3900000EB400B514
:102EB0009CB04FF40271ADF814106FF00041049112
:102EC00007914FF6FF711DABADF81610084953F886
:102ED000042B029006900868019302A900F06EF896
:102EE000029B00221A701CB05DF804EB03B070471F
:102EF0001C9CFF1F034613F8012B002AFBD1181A54
:102F0000013870472DE9F0478D68AB4281460C4689
:102F100092461F4643D38B8913F4906F3DD02668A9
:102F20000969C1EB06086669022206EB460696FBB4
:102F3000F2F608F101023A44964238BF16465B05A4
:102F40000FD5314600F01CFB054698B12169424679
:102F5000FEF7E0FCA38923F4906343F08003A38190
:102F600013E0324600F060FB054670B9484621691F
:102F700000F0C2FA0C23C9F80030A38943F04003E3
:102F8000A3814FF0FF30BDE8F087256166614544BD
:102F9000C8EB06062560A6603D46AF4200D23D461E
:102FA0002A462068514600F08CFAA3685B1BA36098
:102FB00023681D4425600020BDE8F0872DE9F0431B
:102FC0009DB0074603938B891C060D4616460CD50B
:102FD0000B6953B9402100F0D3FA2860286110B979
:102FE0000C233B60C8E040236B610023099320233E
:102FF0008DF8293030238DF82A3033461C4613F8DB
:10300000012B1AB9B4EB06090FD002E0252AF5D13D
:10301000F8E73846294632464B46FFF773FF013042
:1030200000F0A580099B4B4409932378002B00F006
:103030009E8000234FF0FF3204930793059206937E
:103040008DF853301A9304F101094C464D4E217806
:103050003046052200F026FA09F10109049B28B147
:10306000861B0120B04003430493EEE7D90644BF1A
:1030700020228DF853201A0744BF2B228DF85320AD
:1030800022782A2A02D0079B21460EE0039A111DBE
:1030900012680391002A01DB079204E0524243F0D8
:1030A00002030792049301340AE00C4601312278AE
:1030B000303A092A03D80A2000FB0323F5E70793D7
:1030C00023782E2B1AD163782A2B0AD1039B1A1D41
:1030D0001B680392002B04F10204B8BF4FF0FF33CA
:1030E0000BE0611C00230C4601312278303A092A9A
:1030F00003D80A2000FB0323F5E70593224E21782D
:103100003046032200F0CEF930B1861B049B4020EC
:10311000B04003430493013421781C488DF82810F3
:103120000622661C00F0BEF988B1194B33B9039B27
:10313000073323F007030833039314E003AB009332
:10314000384604A92A46134BAFF3008007E003ABCF
:103150000093384604A92A460E4B00F08FF8B0F1D0
:10316000FF3F804603D0099B4344099345E7AB8961
:103170005B0601D4099801E04FF0FF301DB0BDE8B7
:10318000F08300BF5A390000603900006439000044
:1031900000000000052F00002DE9F84315461F46EA
:1031A0008A680B69DDF820809A42A8BF13462B601D
:1031B00091F8432006460C460AB101332B60236880
:1031C000990602D52B6802332B60236813F0060999
:1031D0001DD094F843302268003318BF01239206B3
:1031E0001FD5E1185A1C302081F84300224494F87E
:1031F000451082F84310023313E03046394604F19B
:1032000019020123C047013007D009F10109E26822
:103210002B68D31A9945F0DBDBE74FF0FF30BDE8B0
:10322000F8833046394604F14302C0470130F4D0F8
:1032300023682A68E16803F00603042B08BFC2EB89
:1032400001052369A2680CBF25EAE57500259A42AD
:10325000C4BFC3EB0203ED184FF00009A9450ADA19
:103260003046394604F11A020123C0470130D4D058
:1032700009F10109F2E70020BDE8F8832DE9FF47D5
:103280000E7E0C9D6E2E80460C4691469A4601F1AC
:10329000430000F0A58011D8632E22D009D8002E5B
:1032A00000F0AF80582E40F0BF8081F845607B4A27
:1032B0004FE0642E1ED0692E1CD0B5E0732E00F0B6
:1032C000A48009D86F2E2BD0702E40F0AD800B68F3
:1032D00043F020030B6038E0752E21D0782E34D0D7
:1032E000A2E02B681A1D1B682A6001F1420781F8D1
:1032F00042309DE022682B6812F0800F03D01A1D27
:103300002A601D6805E05106F9D51A1D2A60B3F937
:103310000050002D39DA2D236D4284F8433034E01B
:1033200022682B6812F0800F03D01A1D2A601D68D6
:1033300004E05206F9D51A1D2A601D88237E574ADB
:103340006F2B14BF0A2308231BE07823544A84F808
:1033500045302368296813F0800F01F104062E60C0
:1033600001D00D6802E05F06FBD50D88DE0744BF83
:1033700043F0200323601DB9236823F0200323605A
:103380001023002184F8431001E0444A0A236668B0
:10339000A660002E03DB216821F00401216005B93D
:1033A0006EB104F14201B5FBF3F603FB16550F466F
:1033B000555D01F801593546002EF4D100E007466D
:1033C000082B0AD12368DD0707D5626823699A4272
:1033D00003DC302307F8013C013FC01B20612CE0D7
:1033E00009682B68626911F0800F04D0191D2960EB
:1033F0001B681A6005E04906F8D5191D29601B688D
:103400001A8000232361074617E02B681A1D2A60E3
:103410001F683846FFF76EFD63682061984288BFD9
:1034200023612369636005E004F1420784F8426088
:1034300001232361002384F84330CDF800A04046E7
:10344000214603AA4B46FFF7A7FE013002D14FF0F9
:10345000FF301FE0404649463A462369D0470130D5
:10346000F5D023689B0705D4E068039B9842B8BF5A
:1034700018460FE00025E268039BD31A9D42F3DA59
:103480004046494604F119020123D0470130DED0FD
:103490000135F0E704B0BDE8F08700BF6B390000EC
:1034A0007C39000010B5C9B202449042034606D0F0
:1034B0001C788C4200F10100F7D1184610BD0020A5
:1034C00010BD814270B501D300230EE08C18A042DC
:1034D000FAD28518134613F1FF3305D3514266180B
:1034E0002944F65CCE54F6E770BD934203D0CC5C21
:1034F000C4540133F9E770BD30B500293CD051F810
:10350000042C0B1F1D49002AB8BF9B180A680C46E3
:1035100012B95A600B6030BD93420DD21968581829
:10352000904203D15A581144426819605A6023608E
:1035300030BD994203D80A4651680029F9D1146870
:1035400015199D420AD11B682344D0188842136084
:1035500012D10868034413604B680CE002D90C23B5
:10356000036030BD18681C188C4203D10C68496890
:10357000204418605960536030BD00BF909FFF1F0A
:1035800070B5CD1C25F0030508350C2D38BF0C2572
:10359000002D06463FDB8D423DD3214B1C6818466B
:1035A0002146A1B10B685B1B0ED40B2B03D90B601A
:1035B000CC18CD501FE08C4202D1626802601AE044
:1035C0004B6863600C4616E00C464968E9E7154C09
:1035D00023681BB9304600F04DF82060294630467C
:1035E00000F048F8431C014615D0C41C24F0030425
:1035F00084420AD1256004F10B00231D20F007004E
:10360000C31A0BD05A42E25070BD3046611A00F026
:1036100031F80130EED10C233360002070BD00BFC3
:10362000909FFF1F8C9FFF1FF8B5064614460D465E
:1036300021B91146BDE8F840FFF7A2BF1AB9FFF75C
:103640005BFF2046F8BD00F025F8A0420ED23046C0
:103650002146FFF795FF074650B129462246FEF75F
:1036600059F930462946FFF747FF01E02846F8BDE3
:103670003846F8BD38B5064C002305460846236099
:10368000FEF710FA431C02D1236803B12B6038BD4A
:10369000A89FFF1F51F8040C002802DA04390B58C8
:1036A00018440438704725642025642025640005EB
:1036B0000E08090D0C06070F04001303931A921746
:1036C000C585848687C4FFFF4008FE4340A00440B0
:1036D0004408FE4344A004400018FE4300C00440D8
:1036E0003000FE43309004403400FE4334900440E8
:1036F0001C18FE431CC004401018FE4310C00440B8
:103700000818FE4308C004400C18FE430CC00440D7
:103710000C10FE430CB004401010FE4310B00440E7
:103720001810FE4318B004401C10FE431CB00440A7
:103730001410FE4314B004400418FE4304C00440B7
:103740000010FE4300B004400008FE4300A0044007
:103750000408FE4304A004400C08FE430CA00440EF
:103760000808FE4308A004401418FE4314C0044097
:103770001818FE4318C004400410FE4304B004406F
:103780000810FE4308B004401400FE4314900440A7
:103790004C08FE434CA004400420FE4304D00440E7
:1037A0002410FE4324B004402010FE4320B0044007
:1037B0002810FE4328B004402C10FE432CB00440D7
:1037C0000020FE4300D004404808FE4348A00440C7
:1037D0001000FE4310900440001519150001000070
:1037E0001C9BFF1F1200000000020000469BFF1FF1
:1037F0004300000000030000A09BFF1F000000002A
:10380000010309042E9BFF1F0000000002030904AE
:103810008A9BFF1F0000000003030904A49BFF1FF5
:103820000000000000000000000000000000000098
:103830000000000000000000832B00009B2B000014
:103840006B2B0000732B00006F2B0000772B000008
:103850000D2B0000212B0000412B0000452B000008
:103860004B2B00005B2B00007B2B00007F2B00000C
:10387000DD2A0000E92A0000F52A0000012B0000E3
:10388000AB2B00008F2B00000000000000000000A8
:10389000872C00009F2C00006F2C0000772C00006C
:1038A000732C00007B2C0000112C0000252C000044
:1038B000452C0000492C00004F2C00005F2C00001C
:1038C0007F2C0000832C0000E12B0000ED2B00007A
:1038D000F92B0000052C0000AF2C0000932C0000F9
:1038E00000000000000000008B2D0000A32D000050
:1038F000732D00007B2D0000772D00007F2D000030
:10390000152D0000292D0000492D00004D2D00002F
:10391000532D0000632D0000832D0000872D000033
:10392000E52C0000F12C0000FD2C0000092D00000A
:10393000B32D0000972D00000000000000000000E3
:10394000F92D0000FF2D0000E92D0000ED2D0000F5
:10395000F12D0000F52D00004300232D302B200019
:10396000686C4C0065666745464700303132333439
:1039700035363738394142434445460030313233D9
:1039800034353637383961626364656600FFFFFF9E
:10399000F8B500BFF8BC08BC9E467047350400006F
:1039A000DD060000C52B0000C92C0000CD2D000055
:0439B000092E0000DC
:1039B4000D00000001000000190000008B0201004E
:1039C4005F002B0001005C005A0001005A00000057
:1039D40002005A004E00000049007F0000004E0023
:1039E4002B0000004F00000001005D0054000000A7
:1039F4005000000001005F00DF000100610054007E
:103A0400010062002C00010064009C0003005C00C3
:103A1400550001006500000003005D004B0001003B
:103A240066000000030061007D0003005F002A00BF
:103A340002005A00590000004E00000001006A0014
:103A44004E0000004900000001006D007A000200F1
:103A540058002D00020055003100020052003300CE
:103A640002004E00000003005D00530002004C0001
:103A74005A0001006E00540000004C0000000300D6
:103A840061004D0000004A00000002004E007C006E
:103A940003005F002A0003006100BE0002004F0023
:103AA4002C0002005700000003005F0053000200D6
:103AB4005800320002005A007B00030061002C0011
:103AC40003005F00310002005A000000030061009F
:103AD400630002005F000000030065006D00020047
:103AE40061000000030066004B0002006400330024
:103AF40002006500330002006A00320002006D001B
:103B0400000003006A00530002006E009D000300E1
:103B14006B002B0003006E003300030074003100BF
:103B2400030076005A0002006B00000003007800D6
:103B34004E00020064000000030074005200020002
:103B44005F00000003006D00540002005D000000EF
:103B540003006600520000004C00000002005C00FC
:103B64000000030061007600010070000000020004
:103B74005A00000003005A00740000004A000000CC
:103B840001006E008601010070002C0001006E002F
:103B9400DF0002005D003C00020061000000030041
:103BA4005D00420002006200430003005A0023004B
:103BB40002005F00320002005D0037000100700067
:103BC4009E0002006100520002006200290002000F
:103BD4006400000003005D0055000200680032002C
:103BE40002006A00000003005F00530002006D0041
:103BF400330001006E00000002006E00530001005B
:103C04007000000003006100530002007200000015
:103C140003006200540003006400320001006E00DF
:103C2400310001007000000002006B00000003007E
:103C34006100750002005D00000003005F00540095
:103C440002005A00590001006E002C0002005A00C4
:103C5400340003005D0079000100700000000200E0
:103C640058004E0001006E00330001007000000097
:103C740002005700610002005400220001006E009F
:103C8400000002004F00000003005C007600020008
:103C94004C00000003005F005400010070005A0053
:103CA40001006E00B600010070002D0000004C0001
:103CB400320000004A00000001006E0053000000C2
:103CC4004C00000001007000000002004A00750072
:103CD40000004A00000001006E00BF0002004C001A
:103CE4005200020050002C00020054003100010078
:103CF4007000000002005500000003005C00740026
:103D040002005700330001006E009F0002005800BB
:103D1400530001006D002A0000004E000000010065
:103D24006B0054000000500000000100650000001A
:103D340003005A00730000005400000001006100F9
:103D4400000002005A007600000055000000010047
:103D54005D005400000057006E0001005F00D800B1
:103D640000005800000001005C00550000005500F0
:103D7400000001005A00A50000005400A700010043
:103D84005D00330001005F0032000000500032008B
:103D940000004E00330001006100330002005A00AD
:103DA400000003005D00510003005A0053000100AD
:103DB4006200340001006500330001006600000069
:103DC40003005A00520000004C00000001006D0086
:103DD400000003005800740002005D00330002007C
:103DE4005F003D0002006100380000004A0033001B
:103DF40000004900310003005A00330002005D0056
:103E0400530000004700320002006500310000004A
:103E140046000000020066005F0000004400380015
:103E240000004200320000004100000001006E006A
:103E3400000003005C007500000036000000010073
:103E44007B00000002006400000003005D00960097
:103E54000000390000000100790000000300680040
:103E640073000200610000000300650055000200B9
:103E74005C00320002005A00330003006400670053
:103E8400000036002E0001007C00330003006600B1
:103E9400310000003500000001007E000000030036
:103EA4006A00760000003000000001008400510028
:103EB40000002F000000010085005300030066008D
:103EC400340001008A00000003005C00540001007B
:103ED4008C00000003005A00570001008D00000010
:103EE40002005D00000003005800C60002005F00ED
:103EF4003F0002006100000003005A006500020058
:103F04006400370002006800320000002D00000049
:103F140002006B00530002006D00930002006E006B
:103F2400410003005C00370002007300000003003E
:103F34005F00540000002F00000002008800000011
:103F440003006500740002006E00000003006A00B4
:103F540075000300680032000200700033000200A4
:103F64006E00000003006600520002006D00330082
:103F740002006500310002005A00000003006200E4
:103F8400540002005700000003005A0053000000D0
:103F94002D00000002005500540000002B003F00DB
:103FA40002005400360002005200320001008A0070
:103FB400000002004F00000003005D0074000000D8
:103FC4002D00000001008800000002004E000000E7
:103FD40003005A00980001008300000002003D0025
:103FE400000003005A00730000002B00680000006A
:103FF4002D003A0002004000590000002B0031005F
:1040040000002D00330000002B00000002004C00D3
:10401400530002005200320000002A000000010098
:104024008100000002005500000003005C009700BE
:1040340002005A00000003006200530002005D0009
:10404400000003006500520001008000000002002F
:104054006A000000030066007700020068000000A8
:104064000300650051000300620033000200640095
:10407400000003005C00530001007E000000020009
:104084006200000003005A00820003005D00370054
:10409400000028003200000025003000000022004B
:1040A400000003005F005400000020000000020034
:1040B4005C00740002005A00530003005C00D4004A
:1040C40001007C00380000002700000001007B0094
:1040D400000002005D00000003005A00960000008A
:1040E4002D00000001007800B5000000300036000B
:1040F400000035000000010074005200000041007F
:10410400000001006D005400000050000000010098
:1041140062005400000052003E00010061003700BC
:1041240000005400000001005F00460001005D0033
:10413400330000005500000001005C000000020094
:104144005A00740000005700000003005800540097
:1041540002005A00000003005700530003005A00F5
:104164000C0101005D00C5000000550000000100C5
:104174005F00580000004F00000001006200520080
:1041840000004100330000002F00000001006D001A
:104194005200000035000000010070000000030020
:1041A4005A00750000003E00000001007300530037
:1041B40000004100000002005F0061000200620094
:1041C400350002006A00340002006E003000030073
:1041D4005C00330002006B00320002006800330010
:1041E40002006500320002006400910001007400C6
:1041F400000002006800580002006B00BC000000D0
:104204003E002D0000003B00000002006D00540041
:1042140002007300830002007400340002007E0078
:10422400260002008900320003005D0085000300BF
:104234005F00830003006100350001007600000088
:1042440002008C00000003006500740000003900C7
:104254000000020094005500000038000000020035
:104264008800000003006400790000003B000000A7
:1042740002007B004F00010078000000020079007A
:10428400580002007600320002006B0000000300B8
:104294006200530001007B00000002006100000086
:1042A40003005D0071000000360000000100700092
:1042B400000002005A00000003005C009A000100A4
:1042C400740000000200550000000300580075004F
:1042D40001007900000002005000000003005400B7
:1042E400760000003900000002004E005F0001006B
:1042F40076006900010074003D000100730037007E
:104304000100720000000300520053000000350059
:10431400000001006A0000000200490000000300E0
:1043240050009700000030000000020047005200D7
:1043340001006D00310002004400400001006E00E5
:104344004300000033000000010070005900020027
:1043540042003000010072000000030052005300CC
:104364000300540033000000350000000300550032
:104374005400000036003100020044003300020003
:1043840042003100020041003F0003005700CC000E
:1043940002004200000003005A0017010200470017
:1043A400310002004F0033000200550000000300FA
:1043B4005A00540001007300000002005700B200CC
:1043C400010074006D0002005A002E000000380045
:1043D400000001007600000002005F0000000300FE
:1043E4005F00970000004F0000000100660000001D
:1043F40003005C00730001006500000003005A0024
:10440400550000005000310002005C003300000041
:104414005400000001005F00000002005A00750013
:1044240001005A005C0100005700EE0001005D002D
:104434000C0001005A003D0001005D00360001003F
:104444005F00BB0000005500000001006100600037
:1044540001006200530001006400360000004100C6
:10446400000001007200540000002500000001005B
:104474007B00540000001A00000001007C00520080
:1044840000001000330000000C0000000100800058
:1044940053000100810033000000100031000000CF
:1044A4001A000000010083005200000027000000F1
:1044B400010080006200010081002D0201007E00E5
:1044C4002F0000001F0000000100780053000000CE
:1044D4001A00000001007600000002005800760077
:1044E40000001C00000001007900000002005700D9
:1044F400740001007B00000002005A000000030069
:104504005A00740002005A003400020066003100B0
:1045140001007C00000002006800000003005C0051
:10452400740002006B00680003005D002E000300AD
:104534005F00340003006100310003005F003200BB
:1045440003006400320003006A00320000001E0011
:10455400000003006B00540000001F000000010075
:104564007E00000002006400740002005A00000093
:10457400030068008B00030066008C0003006800E1
:10458400420001007B00380003006A009900030028
:104594006B003B0000002000370002005D000000BB
:1045A40003007200530000002200000003007300A7
:1045B4008A0002005F000000030074005000010044
:1045C4007E00310003006D003100030064003200FE
:1045D40003005A00330003005A003E000300580051
:1045E4003600010080000000030055005400010063
:1045F4007E00000003005400540003005200310008
:10460400010080000000020061000000030054006B
:10461400760002005F000000030052005300010016
:104624007E00000003004E005300010080003300B0
:1046340003004C00320003004600830001008100A7
:104644004000030044003700030042003100020030
:104654005D000000030040005400010083000000DE
:1046640002005C000000030033007A000300300005
:10467400310003002800320002005A000000030049
:1046840023008A00030025002D000100840000009F
:1046940002005A00000003002B00750003003300E1
:1046A400320002005500000003003D0054000200E7
:1046B40054003E0003003E00360002005200000099
:1046C40003004100530002005800000003004700AB
:1046D400530002005A00000003004E00FB000200D9
:1046E4005D00320002005F00330002006D00000034
:1046F4000300400053000200760000000300310074
:104704005400030036008300030038003400020024
:10471400730000000300410054000300490031000D
:1047240003004C00330003004E00310003004F002F
:1047340089020200700000000300520056000200CB
:1047440064000000030055005E00020061003900AF
:1047540002005A00F80102005F0000000300570045
:104764004F0003005400310002006A0000000300FF
:104774005700540002006B00540002006D0030002A
:1047840002006E0000000300540081010300570082
:10479400330002006600000003005A0052000200C9
:1047A4006100330003005A006700020066002F0016
:1047B40002006800600002006600370002005F002B
:1047C40000000300580052000100810000000200B4
:1047D4005200000003005700760002004C00000065
:1047E400030055005F00030054004200030058001A
:1047F400360002005500000003005A005300020076
:104804005D00000003005800550002006E00000027
:1048140003005500470002005F00000003005A0037
:10482400520002005D001101020068000000030054
:104834005A004E0002006D00330002006400320092
:1048440001008800000002005F0053000000270000
:10485400000001008D005F0001008A0036000100A5
:104864008800000002006A00000003005700760080
:1048740000001C00000001007B0000000200660034
:10488400000003005A00960000001A000000010016
:104894007900000002006400750001007C00000043
:1048A40002005A00530002005A00310000001E00AA
:1048B400330000002300000001007E0053000000CC
:1048C4002800330000002A00000001007B00520091
:1048D40000003800000001007400540000003B0098
:1048E4000000010073007400010072003300010035
:1048F4007000310000003E00000001006D00540013
:1049040000004400000001006800530000004C0057
:10491400000001006100550000005000000001008B
:104924005C00520000005400000001005A005400D2
:1049340000005700A70101005D006E0001005F0048
:10494400D80000005800000001005C005500000081
:104954005500000001005A00A50000005400A70003
:1049640001005D00330001005F00320000005000D0
:10497400320000004E0033000100610033000200E9
:104984005A00000003005D00510003005A00530068
:10499400010062003400010065003300010066007C
:1049A400000003005A00520000004C000000010007
:1049B4006D00000003005800740002005D00330025
:1049C40002005F003D0002006100380000004A0060
:1049D400330000004900310003005A003300020094
:1049E4005D00530000004700320002006500310002
:1049F400000046000000020066005F000000440062
:104A040038000000420032000000410000000100B4
:104A14006E00000003005C0075000000360000001A
:104A240001007B00000002006400000003005D0040
:104A34009600000039000000010079000000030026
:104A44006800730002006100000003006500550067
:104A540002005C00320002005A00330003006400CC
:104A64006700000036002E0001007C0033000300C4
:104A74006600310000003500000001007E000000E7
:104A840003006A007600000030000000010084008A
:104A9400510000002F0000000100850053000300B6
:104AA4006600340001008A00000003005C0054002A
:104AB40001008C00000003005A00570001008D0023
:104AC400000002005D00000003005800C600020060
:104AD4005F003F0002006100000003005A0065000F
:104AE40002006400370002006800320000002D005C
:104AF400000002006B00530002006D0093000200EE
:104B04006E00410003005C003700020073000000E7
:104B140003005F00540000002F0000000200880022
:104B2400000003006500740002006E000000030032
:104B34006A00750003006800320002007000330050
:104B440002006E00000003006600520002006D00C7
:104B5400330002006500310002005A000000030027
:104B64006200540002005700000003005A00530082
:104B740000002D00000002005500540000002B002E
:104B84003F000200540036000200520032000100CF
:104B94008A00000002004F00000003005D00740062
:104BA40000002D00000001008800000002004E00FB
:104BB400000003005A009800010083000000020076
:104BC4003D00000003005A00730000002B00680041
:104BD40000002D003A0002004000590000002B00A4
:104BE400310000002D00330000002B000000020003
:104BF4004C00530002005200320000002A00000062
:104C040001008100000002005500000003005C0068
:104C1400970002005A0000000300620053000200E3
:104C24005D000000030065005200010080000000E8
:104C340002006A00000003006600770002006800BA
:104C4400000003006500510003006200330002000D
:104C54006400000003005C00530001007E000000BB
:104C640002006200000003005A00820003005D009D
:104C7400370000002800320000002500300000004A
:104C84002200000003005F00540000002000000028
:104C940002005C00740002005A00530003005C0030
:104CA400D40001007C00380000002700000001004F
:104CB4007B00000002005D00000003005A00960023
:104CC40000002D00000001007800B5000000300055
:104CD400360000003500000001007400520000009E
:104CE4004100000001006D0054000000500000006D
:104CF400010062005400000052003E000100610007
:104D0400370000005400000001005F00460001006D
:104D14005D00330000005500000001005C0000004D
:104D240002005A00740000005700000003005800FD
:104D3400540002005A00000003005700530003000F
:104D44005A0000000B0000000000CB01CE01CF038D
:104D5400D20337053A05BC07BF07C3090F0000009B
:104D64000C0A0400FFFFFFFFAC9FFF1F12010002AB
:104D740002000040C016830400010102030118036D
:104D84005400650065006E007300790064007500CE
:104D940069006E006F0009024300020100C032097D
:104DA4000400000102020100052400100105240191
:104DB40001010424020605240600010705820310EC
:104DC400004009040100020A000000070503024034
:104DD400000007058402400000001603550053003C
:104DE40042002000530065007200690061006C00FD
:104DF400040309040C03000000000000000000008C
:104E0400000000000000000000000000000000009E
:104E1400000000000000000000000000000000008E
:104E240000000000000000000000000058390000ED
:104E3400000000000000000000000000000000006E
:104E4400000000000000000000000000000000005E
:104E5400000000000000000000000000000000004E
:104E6400000000000000000000000000BC9BFF1FC9
:00000001FF
