:1000000000800020BD010000510B00001D0B00000E
:100010001D0B00001D0B00001D0B00001D0B000040
:100020001D0B00001D0B00001D0B0000510B0000FC
:10003000510B00001D0B0000510B00000D0B0000C8
:10004000510B0000510B0000510B0000510B000040
:10005000510B0000510B0000510B0000510B000030
:10006000510B0000510B0000510B0000510B000020
:10007000510B0000510B0000510B0000510B000010
:10008000510B0000510B0000510B0000510B000000
:10009000510B0000510B0000510B0000510B0000F0
:1000A000510B0000510B0000510B0000510B0000E0
:1000B000510B0000510B0000510B0000510B0000D0
:1000C000510B0000510B0000510B0000510B0000C0
:1000D000510B0000510B0000510B0000510B0000B0
:1000E000510B0000510B0000510B0000510B0000A0
:1000F000510B000059200000510B0000D5250000D5
:10010000510B0000812A0000510B0000510B000030
:10011000510B0000510B0000510B0000510B00006F
:10012000510B0000510B0000510B0000510B00005F
:10013000510B0000510B0000510B0000510B00004F
:10014000510B0000510B0000510B0000510B00003F
:10015000510B0000510B0000510B0000510B00002F
:10016000BD350000250F0000510B0000510B0000B1
:10017000510B0000510B0000510B0000510B00000F
:10018000510B0000510B0000510B0000510B0000FF
:10019000510B0000510B0000510B0000510B0000EF
:1001A000510B0000510B0000510B0000510B0000DF
:1001B000510B0000510B0000510B0000564B4CF24C
:1001C000205210B51A804DF628121A8000BF00BFC9
:1001D00000F0C2FC514B4FF010621A60504A9A6016
:1001E000504ADA60A3F53043203B1A6812F480725B
:1001F00004D14D490A604FF4A8521A604B4B1A784B
:10020000110703D51A7842F008021A70484B2A22C7
:100210001A700023474A48499818884204D247492F
:10022000595899500433F5E7454A464B9A424FF0E6
:10023000000302D242F8043BF7E74349434A5958C6
:1002400099500433B3F5DE7FF7D1414B802103F899
:10025000011B40498B42F9D13F4B1A603F4B0A22A8
:100260001A70A3F5805324225A70A0221A709A792A
:100270009207FCD59A79D406FCD4394B9A7902F0CE
:100280000C02082AF9D105221A7143225A719A796F
:100290009006FCD5324B9A795106FBD5314A4FF086
:1002A000817111600521516020221A702C4B9B79BD
:1002B00003F00C030C2BF9D12B4B2C4A1A602C4B5E
:1002C0002C4A1A6000225A60072243F8042C2A4A5A
:1002D000C3F80C2D62B600F00DFD134B1B68DA0756
:1002E00005D5264800F084FC254B264A1A60264B8B
:1002F0001B785B0609D5224C224A2368934204D11D
:100300001E4800F075FC0023236003F0D1F900F0D3
:1003100029FC00F059FBFEE70E2005403080044028
:10032000823F04000100002B14D0034002D007409C
:1003300000E007406087FF1F34A4FF1FA87C000077
:1003400034A4FF1FF0A7FF1F000000000082FF1F62
:1003500000E400E05FE400E008ED00E0005006404B
:10036000004006404480044004800440C010050062
:1003700014E000E03F19010000002020CA73CB56B2
:100380001CE00340A5C3945A00F00740FFFFFFFFA5
:10039000FFFFFFFFFFFFFFFFFFFFFFFFFFFFFFFF6D
:1003A000FFFFFFFFFFFFFFFFFFFFFFFFFFFFFFFF5D
:1003B000FFFFFFFFFFFFFFFFFFFFFFFFFFFFFFFF4D
:1003C000FFFFFFFFFFFFFFFFFFFFFFFFFFFFFFFF3D
:1003D000FFFFFFFFFFFFFFFFFFFFFFFFFFFFFFFF2D
:1003E000FFFFFFFFFFFFFFFFFFFFFFFFFFFFFFFF1D
:1003F000FFFFFFFFFFFFFFFFFFFFFFFFFFFFFFFF0D
:10040000FFFFFFFFFFFFFFFFFFFFFFFFFEFFFFFFFD
:1004100010B5054C237833B9044B13B10448AFF33E
:1004200000800123237010BD34A4FF1F00000000D2
:10043000A07C000008B5064B1BB106480649AFF387
:1004400000800648036813B1054B03B1984708BD07
:1004500000000000A07C000038A4FF1F34A4FF1F90
:100460000000000038B5044608460D4603F0B8FE0B
:100470002368024629465B68204698470546204681
:1004800000F054F9284438BD38B5144B144C0546D7
:100490000121187800F0BCFB124B1B689D4216DA54
:1004A00011491248FFF7DEFF114B00221A606D0060
:1004B000104B114A33F815101160013533F815202F
:1004C0000E4B1A600E4B1A680E4B1A6001E00023A7
:1004D000236023680133236038BD00BF6087FF1F9E
:1004E00098A4FF1FA4A4FF1F28780000A0A5FF1F49
:1004F00090A4FF1FF49AFF1FA8A4FF1FA0A4FF1F32
:1005000050A4FF1F9CA4FF1F164B10B51878164C63
:10051000012100F09DFB154B0522072120461A60A2
:1005200003F014F80821A01D03F010F8092104F1CC
:100530000C0003F00BF80A2104F1120003F006F896
:100540004FF4FA6000F0C0FB094B1A68094B1A60BF
:10055000094B187800F0C8F9084B1860084B186070
:1005600010BD00BF6087FF1F78A4FF1FA4A4FF1F5A
:10057000F09AFF1F9CA4FF1F0C9BFF1FACA4FF1F42
:1005800074A4FF1FF0B5384C384E2368326893428C
:1005900087B011D1364B187800F0A6F9354B3649A3
:1005A0001860364B09681A68121A8A4202DD344A0A
:1005B00012682260186055E0314A1268934204D1F3
:1005C000304B1868FFF760FF4CE02F4A12689342E7
:1005D00043D12E4D2E4A2B68116819442D4B1B68B0
:1005E000994217DD2C492D48FFF73CFF2C4B002189
:1005F000187800F00DFB4FF4FA6000F065FB1C4B1F
:10060000187800F071F91B4B18601C4B18603368A8
:1006100023601EE02348244C30F81120234F244E41
:1006200022604B1C023130F8133030F811103B605F
:10063000316002A800911F4903F0ACFD3A681E4BDF
:100640003168062000FB023002F098FF206800F0BD
:100650003BFB2B6803332B6004E0114B002118781F
:1006600000F0D6FA07B0F0BD9CA4FF1FF09AFF1F60
:100670000C9BFF1FACA4FF1F6487FF1F74A4FF1F08
:10068000089BFF1F98A4FF1F50A4FF1F90A4FF1FEB
:10069000A8A4FF1FA0A4FF1F30780000A0A5FF1F83
:1006A0006087FF1F6887FF1F94A4FF1F6CA4FF1FB4
:1006B00070A4FF1F3A78000078A4FF1FF8B5144F0C
:1006C000144E154D154C384602F0CCFE304602F063
:1006D000C9FE284602F0C6FE204602F0C3FE104BBB
:1006E0003A681A60BA889A803268C3F80620B288DD
:1006F0005A812A68DA60AA881A822268C3F812200E
:10070000A288DA82074B1A68074B1A60F8BD00BF4F
:1007100054A4FF1F5AA4FF1F60A4FF1F66A4FF1F5D
:1007200078A4FF1FF09AFF1F9CA4FF1F07B5064B7C
:100730001B88ADF80430036801A95B680222984762
:1007400003B05DF804FB00BF43780000F0B5304B08
:100750001B681B06FBD42F4B1B6813F08002F6D1DD
:1007600072B62D4B1978002950D02C4908684F6873
:100770008E68CD680C6938441431304409682844C7
:1007800020440844C0F34E00254940F4004008606E
:10079000C86A0F6B4E6B8D6BCC6B38444031304464
:1007A0000968284420440844C0F34E001D4940F421
:1007B0000040086001F10811143151F8140C51F88F
:1007C000107C51F80C6C51F8085C51F8044C096825
:1007D00038443044284420440844C0F34E001249B1
:1007E00040F400400860C86A0F6B4E6B8D6BCC6B99
:1007F0003844403130440968284420440844C0F358
:100800004E000A4940F4004008601A7062B6F0BD1C
:1008100024B0034024B00B40B1A4FF1F38B0034004
:100820002CB0034030B003402CB00B4030B00B4034
:1008300010B5204B2048214960221A70E1225A70DD
:100840001F4B204A1C78204B082C01D1012402E0C8
:100850000A2C03D119240460132005E00C2C0CBFD2
:1008600015243D2404601220086014601860174BA2
:1008700017491B78174A03B101230B601360164B0D
:10088000164A1978164B012901D880210BE004295A
:1008900001D8842107E0082901D8852103E0102927
:1008A00094BF86218721116019600E4B01221A70B6
:1008B00010BD00BF0040074008B003400CB003402B
:1008C000109BFF1F08B00B400CB00B40B4A4FF1FDF
:1008D00020B0034020B00B40119BFF1F24B0034009
:1008E00024B00B40B1A4FF1F0D2838B50FD917282D
:1008F00001D80E380AE0A0F11A03052B01D80938F7
:1009000004E0A0F12203062B47D81838C0B2244BCC
:100910001C5C244B1B780BB1FFF718FF210614D485
:1009200072B6214B214D1C6001232B7062B672B64A
:100930001D4B1B681A0601D51D4B1FE02B78002BA1
:10094000EFD062B600F0A0FFF1E772B6194B1A4D76
:100950001A6814F0400F14BF22F0100242F0100287
:100960001A60164B04F03F021A6001232B7062B626
:1009700072B6124B1B681B0608D5114B1868002372
:100980002B7062B60F4B1B78184138BD2B78002BAB
:10099000DCD062B600F078FFEAE7002038BD00BF87
:1009A00045780000B1A4FF1F00B00340B3A4FF1FAF
:1009B00010B003400CB00B40B2A4FF1F00B00B40BE
:1009C00010B00B40B0A4FF1F08B5FFF79DFDFFF767
:1009D000D9FD00F059FFFAE7844641EA000313F01D
:1009E00003036DD1403A41D351F8043B40F8043B36
:1009F00051F8043B40F8043B51F8043B40F8043BF9
:100A000051F8043B40F8043B51F8043B40F8043BE8
:100A100051F8043B40F8043B51F8043B40F8043BD8
:100A200051F8043B40F8043B51F8043B40F8043BC8
:100A300051F8043B40F8043B51F8043B40F8043BB8
:100A400051F8043B40F8043B51F8043B40F8043BA8
:100A500051F8043B40F8043B51F8043B40F8043B98
:100A600051F8043B40F8043B403ABDD2303211D338
:100A700051F8043B40F8043B51F8043B40F8043B78
:100A800051F8043B40F8043B51F8043B40F8043B68
:100A9000103AEDD20C3205D351F8043B40F8043B38
:100AA000043AF9D2043208D0D2071CBF11F8013B36
:100AB00000F8013B01D30B8803806046704700BFFC
:100AC000082A13D38B078DD010F003038AD0C3F10B
:100AD0000403D21ADB071CBF11F8013B00F8013BED
:100AE00080D331F8023B20F8023B7BE7043AD9D3AC
:100AF000013A11F8013B00F8013BF9D20B78037081
:100B00004B7843708B78837060467047024B1A684D
:100B100001321A60704700BFB8A4FF1F08B50B4C24
:100B20002368580301D500F0FDF92368590501D564
:100B300001F092FA23681A0501D501F04BFD2368F4
:100B4000DB04ECD501F09CFFE9E700BF34800440F2
:100B500008B5FFF7E3FFFFFF014B10221A80704733
:100B6000002005407047FFFF024A136818441060D8
:100B700018467047149BFF1FEFF313839BB9EFF3E5
:100B8000108098B9EFF3058323B10F2B04D9084ADD
:100B9000985C01E04FF48070EFF311833BB1834226
:100BA00038BF184670474FF0FF30704718467047FF
:100BB000F0E300E010B50023B0FBF2F402FB1400F8
:100BC000092894BF30303730C0B2C85420460CB129
:100BD0000133F1E7CA18547022469A4206DA885C5B
:100BE000CC5C8C54C8540132013BF6E7084610BD7A
:100BF000044B054900221A600A60044A1060102262
:100C00001A60704714D0034004D0034000D0034062
:100C1000212810B518D80D4A52F8303093F8804288
:100C20003CB1012211B183F8802010BD83F800216E
:100C300010BD02EBC00043681A6811B142F0030214
:100C400001E022F002021A6010BD00BF5C780000D3
:100C5000212816D80B4A02EBC00301295B6852F821
:100C6000302004D182F880124FF4A27208E00020F4
:100C700082F8800211B94FF4807201E040F2031251
:100C80001A6070475C78000072B60C4B0C491A6809
:100C90000C4B1B68096862B6490102D5322A88BF2D
:100CA0000133C2F58C32482102F23F12B2FBF1F25D
:100CB0004FF47A7000FB0320704700BF18E000E09B
:100CC00004ED00E0B8A4FF1F38B50446FFF7DCFFD1
:100CD000054624B938BD013C0AD005F57A75FFF701
:100CE000D3FF401BB0F57A7FF5D200F0CDFDF6E7DB
:100CF00038BDFFFF1F4B4FF4000210B51A604FF0D4
:100D000080721A604FF000721A604FF080621A60B1
:100D10004FF000621A60184B184A194C002048F630
:100D2000FF71186059602823136093601361936109
:100D300013629362136393630922226004F5805463
:100D4000043420606160A360236144F8042C04F53E
:100D5000FE2420600B4801600B490B608B600B4B3D
:100D60001A60FFF765FDFA20FFF7AEFFBDE81040FF
:100D700000F0D6BB08E100E0048003400C80034093
:100D80000080034008800B400C800B4000800B402B
:100D9000F0B50C4B0C4C1A7842F0020504EBC5067A
:100DA00082F00102706009481A700678002E0CBFAC
:100DB0008827C82786F0010647EA0141067044F8F3
:100DC0003510F0BD24A5FF1F0080FF1F9CA5FF1F4D
:100DD000431E032B10B510D872B6094A52F82300EF
:100DE00048B1416842F82310064A018832F813409E
:100DF000611A22F8131062B610BD002010BD00BFAA
:100E000014A5FF1FD8A7FF1F013803280AD872B600
:100E1000054B53F82030002013B101305B68FBE72D
:100E200062B670470020704768A5FF1F10B572B604
:100E30000123174A1A4412F8012C12071CD59900F5
:100E4000144A52F831402CB902EB43130830586071
:100E5000114B09E041F0010152F8314064B902EB55
:100E6000C103083058600D4B42F831300C4B1A78F2
:100E7000013A1A7062B610BD0133052BD9D162B6A2
:100E8000074B00221A70BDE8104000F0C5BB00BF40
:100E9000987A00000080FF1F88004000C8004000D2
:100EA00092A5FF1F431E032B30B532D8194A4001CB
:100EB00040F01000104472B6174CE25C032A09D8C7
:100EC000DFE802F0160218050830022213E00830AD
:100ED000042210E01148124A50F8234014B940F897
:100EE000231002E052F82300416042F823100FE083
:100EF000032200E00522E25410F0080F01F108037C
:100F00000A8843600CBF8823C82343EA0243036076
:100F100062B630BD0080FF1FD0A4FF1F68A5FF1F71
:100F200078A5FF1F2DE9F84FAB4F3C78E4B214F0E1
:100F3000040F3D4619D0A94B1B78A3B1A84A1178DC
:100F400001F0FF0321B1013BDBB2137003B900BE16
:100F5000A44A117801F0FF0329B1013BDBB2137001
:100F60000BB900F06DFC04233B7004F0080303F0A0
:100F7000FF02002B00F067829B4B9C4C1A78D2B288
:100F800015094FEA920840F0E48104EBC803596860
:100F900054F83830C3F38303013B0C2B00F2D681A5
:100FA000DFE813F095019501D401D401D401D401F7
:100FB000D401D401B001D401D401D4010D008C4D71
:100FC0000A684B688B486B6001218B4B44F83830C2
:100FD0002A60DFF85082017092B240F281600023F3
:100FE0008242C8F800302361A36117D8B2F5D06FF0
:100FF00080F01E81B2F5817F00F0CF8006D8802A74
:1010000000F0BA80822A00F0BB8031E140F2023366
:101010009A4200F0D180B2F5A06F1CE042F22100AC
:10102000824200F051810ED8B2F5086F00F09E8028
:10103000B2F5106F40F01C81684B6C4EAA781A70A4
:1010400006F180090AE042F221218A4200F008817B
:1010500042F221339A4200F00F8109E1336A1B0604
:1010600003D5706A083800F0D7FA08364E45F5D136
:101070000026B146DFF8B0A156F80A0028B1D0F832
:1010800004B000F0C9FA5846F8E74AF806005B4B8E
:10109000DFF898A1F05056F80A0028B1D0F804B053
:1010A00000F0BAFA5846F8E7554B4AF80600F050F7
:1010B000544B23F81900544B19F80320023A032A21
:1010C00008D8DFE802F002040204002200E0012256
:1010D00003F8092009F10109B9F1040F06F104062A
:1010E000C8D14A4B00221A7001269A46484A494BF9
:1010F0003244334412F8012C9B0012F0080F1A708E
:101100004FEA860925D000F069FA38B104EB46139E
:1011100008305860404B44F8393006E09AF8003007
:1011200044F8390001338AF8003000F057FA49F0EA
:10113000010338B104EBC302083050602E4A44F872
:10114000332006E044F833009AF8003001338AF87F
:10115000003049F00202013649F003090023052E50
:1011600044F8323044F83930C0D186E01B4B2B4C68
:101170001B7823700B4683E0284C237063707EE05D
:10118000AA88042A74D8254C920023706370244BDB
:101190009B5C9E0773D5217071E0AA8802F07F02E4
:1011A000042A65DC6B88002B62D191001C4A0A443A
:1011B000117821F0020159E0AA8802F07F02042A86
:1011C00056DC6B88002B53D19100154A0A441178E4
:1011D00041F002014AE000BF802007409BA5FF1FAD
:1011E00025A5FF1FB0A5FF1F902007400080FF1F0F
:1011F00088A5FF1F9CA5FF1FC8004000C0A4FF1FBB
:1012000078A5FF1FD8A7FF1FD0A4FF1F92A5FF1F1F
:10121000987A000030C801108800400093A5FF1F95
:10122000C0200740BCA4FF1F14A5FF1F68A5FF1F17
:101230006A88A9889F4B53F8084CA3F10C00BCB1F5
:1012400033F80C6C964209D133F80A6C8E4205D102
:10125000120A032A0CBF2378038911E00C33EAE752
:10126000954A1168954A1160A978954A117004E071
:10127000944B0F221A7027E000231C4600E0022343
:10128000EE88B34238BF1E46402E34BF3546402557
:1012900020462946FFF77CFD761B2C4403D1402DC8
:1012A00012D1354603E0402E34BF35464025204656
:1012B0002946FFF76DFD761B2C4401D1402D03D14B
:1012C000814AC8F8004016800122804B3DE0804BE7
:1012D0001A8842F221039A4210D100237D4AC85C49
:1012E00098540133072BF9D11368862B02D17A4B1E
:1012F0000F221A7000200146FFF74AFD774B44F891
:10130000383023E0764E3568B5B1DFF8BC81B8F8E7
:101310000090B9F1400F34BF4C4640242846214686
:10132000FFF736FDC4EB09039BB2A8F800300BB9F8
:10133000402C00D12B193360654B1A88B2F5A06F91
:1013400004D100225A709A78664B1A7001225F4BC2
:101350006CE004EBC806013D736802F00802A3F1DB
:101360000800EDB202F0FF01002A36D000F054F977
:101370005D485E4B50F82520EAB1516840F82510D1
:1013800002F108017160595D03290BD8DFE801F013
:1013900002040608032104E0022102E0052100E026
:1013A0000421595516F0080F12880CBF8823C82352
:1013B00043EA024342E05A5D032A07D8DFE802F01D
:1013C00040400204002206E0012204E016F0080F6B
:1013D0000CBF022203225A5532E054F83820120C76
:1013E00023F8082C22B3DFF834E123F8061C43F875
:1013F000041C5EF825303E4913B94EF8250002E082
:1014000051F8253058603B4B41F8250033F8151052
:101410000A4423F8152000F0E1F810B1083070609C
:1014200006E0354B44F838001A7801321A7007E0AC
:101430002A4B324A16F0080F08BF134644F83830DA
:1014400008233B7070E5E0071FD520492B482C4C42
:1014500002230B702B4B1A702B4B186098602B4893
:10146000D8601A619A615C60164B0D20187028488C
:10147000FF2303702B700274264A1370264B9F22A1
:101480001A7001230B70BDE8F88F210604D50D4BAF
:101490000D221A7080232B70A20705D51C4B1A78D9
:1014A000D2B21A7002232B70E30644BF10232B70B4
:1014B000BDE8F88FA87A0000B8A4FF1FE8A7FF1FB7
:1014C000C0A5FF1FC020074090A5FF1F9420074024
:1014D00088A5FF1FE0A7FF1F25A5FF1FC80040002C
:1014E000BCA4FF1F9820074068A5FF1FD0A4FF1FC2
:1014F000C0A4FF1FD8A7FF1F92A5FF1F88004000B0
:10150000D4A4FF1F24A5FF1F0080FF1F28A5FF1FD5
:10151000882007408C2007408420074014A5FF1F27
:1015200008B501F015FB00221A4B0021D150981884
:101530000832882A4160F7D1174A106840F48020A9
:10154000106002F528326832C3F307201070C3F32D
:1015500007401B0E10751376FF2302F81C3C02F89F
:10156000143C02F88C3C012302F8083C82F8641019
:1015700002F8183C094B70226FF450711A700B443A
:101580004FF400721A6003F1C04303F5C823102220
:101590001A7008BD0080FF1F3480044049E400E059
:1015A00000F09EB800F05AB800F07EB800F01AB90A
:1015B000084600F00BB90846114600F09FB8704786
:1015C000044B00221A714FF47A711A73024A99601F
:1015D0001A607047A0A5FF1F7879000072B60C4A08
:1015E0001168B1FA81F30B2B02D962B60020704763
:1015F0004FF00040D84021EA0001116062B6054971
:1016000048225343C8180022CA504260704700BFA6
:10161000189BFF1F0084FF1F0C4B4822C31AB3FB0B
:10162000F2F30B2B11D80A4A127822B1094A127828
:101630000AB1FFF7FBBB72B6074A4FF0004121FA2F
:1016400003F311681943116062B670470084FF1FED
:1016500092A5FF1F9BA5FF1F189BFF1F10B5104CE5
:1016600023686BB120684288531C0244147A0288B4
:10167000934212D3FFF7D0FF094B00221A600DE00E
:10168000084B1B7813B94FF0FF3010BD0320FFF754
:101690009FFB20600028E5D1F5E74380204610BD80
:1016A000BCA5FF1F9BA5FF1F10B50B4C236813B1F2
:1016B00023686BB902E0094B1B7813B94FF0FF3078
:1016C00010BD0320FFF784FB20600028F0D1F5E770
:1016D0005A881344187A10BDBCA5FF1F9BA5FF1F95
:1016E000044B9888044B1B681BB11A885B88D31A7B
:1016F00018447047D8A7FF1FBCA5FF1F2DE9F8436A
:101700002D4E012307460C463370002C4FD02B4D35
:101710002B68A9462BBB48F60148294B1B7803F0E0
:10172000FF020BB9327015E00420FFF76DFB0728AC
:1017300008D801233370FFF751FFC9F8000080B9C2
:101740001D4B1870B8F101081E4B01D01A782AB150
:1017500001221A704FF0FF30BDE8F88300F094F8D2
:10176000DBE72968174A488800231370C0F140025C
:10177000944238BF224600F1080C10448C44488043
:10178000A41A934204D0F85C0CF803000133F8E784
:101790001F444B883F2B06D940230B800420FFF7C2
:1017A00081FB00232B60084B05221A70ADE73470D3
:1017B0002046BDE8F88300BFB1A5FF1FB4A5FF1FF9
:1017C0009BA5FF1FB8A5FF1FB0A5FF1F07B502AB64
:1017D000012103F8010D1846FFF790FF03B05DF8F3
:1017E00004FBFFFF2DE9F041114B1B78F3B1114EC3
:1017F000114B3468114D01271F7098464CB10027DA
:1018000063882F70042023802146FFF74BFB37604D
:1018100009E0FFF7E3FE014620B104202C70FFF73A
:1018200041FB00E02F70002388F80030BDE8F08114
:101830009BA5FF1FB4A5FF1FB1A5FF1FB0A5FF1FEC
:1018400038B50E4B1B7803F0FF05ABB90C4C216883
:1018500031B14B880B800420FFF724FB256038BD95
:10186000FFF7BCFE014620B10420BDE83840FFF779
:1018700019BB044B01221A7038BD00BFB1A5FF1F70
:10188000B4A5FF1FB0A5FF1F10B50E4C2378BBB940
:1018900001232370FFF724FF08B1FFF790FE00F04B
:1018A00065FB08B100F083F800F01EFE08B100F0FF
:1018B00000F901F081F808B100F07DF900232370F0
:1018C00010BD00BFC1A5FF1F08B50368C9B21B68E2
:1018D000984708BD08B50368C9B21B68984708BD9A
:1018E00008B50368C9B21B68984708BD08B5036806
:1018F000C9B21B68984708BD034800EB5100B0FB14
:10190000F1F000F067B900BF0044950810B5064833
:1019100000EB51001446B0FBF1F000F05BF92046FB
:10192000BDE8104000F09CB90044950800F0C2B931
:10193000084600F0F3B908B5084600F00BFA00308D
:1019400018BF012008BD08B5084600F025FA003090
:1019500018BF012008BD00F009BB00F041BB00F03A
:1019600015BB00F0E7BA00F053BB00F0EDBA08B5C4
:10197000084600F037FA012008BD08B5084600F017
:1019800031FA012008BD10B508461446114600F092
:1019900073FA204610BD38B508460D4602F020FC0B
:1019A00004462146284600F067FA204638BD7047B5
:1019B000044B00221A714FF47A711A73024A99602B
:1019C0001A607047C4A5FF1F9879000008B5036826
:1019D000C9B21B68984708BD08B50368C9B21B683F
:1019E000984708BD08B50368C9B21B68984708BD89
:1019F00008B50368C9B21B68984708BD034800EBE7
:101A00005100B0FBF1F000F0ABBB00BF0044950803
:101A100010B5064800EB51001446B0FBF1F000F0A1
:101A20009FFB2046BDE8104000F0E0BB0044950855
:101A300000F006BC084600F037BC08B5084600F0C8
:101A40004FFC003018BF012008BD08B5084600F063
:101A500069FC003018BF012008BD00F045BD00F052
:101A60007DBD00F051BD00F023BD00F08FBD00F042
:101A700029BD08B5084600F073FC012008BD08B573
:101A8000084600F06DFC012008BD10B5084614465C
:101A9000114600F0AFFC204610BD38B508460D4693
:101AA00002F09EFB04462146284600F0A3FC204697
:101AB00038BD7047044B00221A714FF47A711A73C3
:101AC000024A99601A607047D4A5FF1FF0790000A0
:101AD00008B50368C9B21B68984708BD08B5036814
:101AE000C9B21B68984708BD08B50368C9B21B682E
:101AF000984708BD08B50368C9B21B68984708BD78
:101B0000034800EB5100B0FBF1F000F0E7BD00BF6F
:101B100000A24A0410B5064800EB51001446B0FB81
:101B2000F1F000F0DBFD2046BDE8104000F018BEEB
:101B300000A24A0400F03EBE084600F06FBE08B5A1
:101B4000084600F087FE003018BF012008BD08B528
:101B5000084600F0A1FE003018BF012008BD00F0CB
:101B60002BBF00F063BF00F037BF00F009BF00F0EB
:101B700075BF00F00FBF08B5084600F0ABFE0120AE
:101B800008BD08B5084600F0A5FE012008BD10B547
:101B900008461446114600F0E7FE204610BD38B551
:101BA00008460D4602F01CFB04462146284600F07C
:101BB000DBFE204638BD7047044B00221A714FF4FB
:101BC0007A711A73024A99601A607047E4A5FF1F80
:101BD000487A0000194B1A6842F480621A60184A69
:101BE00000231370174A1370174A1370174A1370A3
:101BF000174A1370174B40F213321A604FF45172A8
:101C00005A60154BC0F344321A70C0F347125A7031
:101C10000221042200F01F0098729A70D9745A753C
:101C200088221A743C22DA700C4B40226FF44A71FD
:101C30001A700B444FF400521A607047348004400D
:101C40007AA6FF1FF9A5FF1F80A6FF1F7BA6FF1F17
:101C5000F8A5FF1F40A0044000A006402DE400E0CE
:101C6000134A937800F0030103F0EC030B434107A0
:101C700048BF43F01003937000F00F03042B0C498E
:101C800003D18B7943F040038B715379C20603F083
:101C9000EF03074A48BF43F010035371937981065D
:101CA00003F0EF0348BF43F010039371704700BF88
:101CB00000A0064008B5114B1B685B0500D408BDA9
:101CC0000F4B1A7802F0FF0312B1FFF7DDFDF7E7C3
:101CD0000C4A4FF4005111600B4A0C49D37040F28A
:101CE00003120A604A600A4A13700A4A13700A4BC8
:101CF0001B680BB101221A7008BD00BF348004407C
:101D0000F8A5FF1F84E100E000A0064040A00440C9
:101D10007AA6FF1FF9A5FF1FF4A5FF1F38B50446DB
:101D2000094B1B7803F0FF05002BF9D12046012158
:101D3000FEF78EFF20462946FEF76AFF034B53F855
:101D40003420034B1A6038BDF8A5FF1F5C780000F3
:101D50007CA6FF1F0D4A38B5146814F480624FF05A
:101D6000000410D021280A4D0AD80A4A012152F84D
:101D700030302B60FEF76CFF2B681C70012038BDE3
:101D80002C60204638BD104638BD00BF348004406A
:101D9000F4A5FF1F5C7800000E4B1B6813F48063F2
:101DA00016D012280C4B03D140F202310B4A04E04A
:101DB000142809D10A4A40F2023111605A7B42F0DC
:101DC00001025A73012070475A7B02F0FE025A73D7
:101DD000002070473480044000A006400CA004405E
:101DE00014C00440F8B51D4B1B685A05064633D590
:101DF0001B4B1B680BB101221A701A4B1C78013463
:101E0000402C1F4628BF0024174D2B78A34218D121
:101E1000FEF7B2FE40280FDC144A13791B06F3D5F7
:101E20002B7813490133402B28BF0023C95CDBB258
:101E3000C9B2D1712B70E7E7FF28E5DDFFF724FD7C
:101E4000E2E70B4BF6B21E550A4B01221A70074B04
:101E5000E4B2BC223C70DA70F8BD00BF34800440AC
:101E60007CA6FF1F80A6FF1F7BA6FF1F00A00640C9
:101E7000FAA5FF1FF8A5FF1F274B1B685A052DE980
:101E8000F04707468A4644D5244B1B680BB1012214
:101E90001A703D4607EB0A039D4237D2DFF8908067
:101EA0001F4E98F8004096F800900134402C28BF4F
:101EB00000245FFA89F9A1451DD11A4BBC22DA70C2
:101EC000FEF75AFE40280FDC164A13791B060FD581
:101ED000337815490133402B28BF0023C95CDBB29E
:101EE000C9B2D171337003E0FF2801DDFFF7CCFCEC
:101EF00033784B45E4D00C4B15F8012B1A550B4B9E
:101F00000122E4B21A7088F80040C3E7054BBC22F6
:101F1000DA70BDE8F08700BF348004407CA6FF1F64
:101F20007BA6FF1F00A00640FAA5FF1FF8A5FF1F14
:101F300080A6FF1F08B5034B1B7813B1FFF7A4FC65
:101F4000F9E708BDF8A5FF1F064A074B1B78107874
:101F5000DBB2C0B283422CBF3F3000F1FF30C01A69
:101F6000704700BF7BA6FF1F80A6FF1F054B187898
:101F7000054B1B78C0B2DBB2984238BF4030C01A64
:101F8000704700BF7AA6FF1FF9A5FF1F10B5104BC1
:101F900010491A780B78D2B2DBB29A4214D00133CE
:101FA000402B28BF00230C48DCB2C05C0C700B49EE
:101FB0000968C0B251B19A4238BF4032D31A1A2BC5
:101FC00004DC00230B7010BD4FF0FF3010BD00BFCC
:101FD0007AA6FF1FF9A5FF1F3AA6FF1FF4A5FF1F52
:101FE000084B1A78084B1B78DBB29A4207D00133B2
:101FF000402B28BF0023054AD05CC0B270474FF089
:10200000FF3070477AA6FF1FF9A5FF1F3AA6FF1FF2
:102010000C4B1B685B0514D50B4BDA7802F0CB0236
:10202000DA7040225A74DA7842F03402DA70074BE0
:102030001A78074BD2B21A70064B1B680BB10022FC
:102040001A7070473480044000A00640F9A5FF1FB5
:102050007AA6FF1FF4A5FF1F30B5374B1A7912F08F
:10206000300F31D072B69A7D02F0FF0022B9DA79D2
:1020700040225A7462B627E062B6304A304913787B
:102080000978DBB2C9B214462B4AD5795A1C402ACA
:1020900028BF00228A42EDB202D02A4B9D5413463B
:1020A000421E12F0FF00EFD1DAB22270264A126807
:1020B00052B18B4236BFC1F14001C1EB03035B1843
:1020C000272BC4BF012313701B4BD978C9B20C0650
:1020D00020D51B7918061DD51C4B1D4A1D78137879
:1020E000EDB2DBB21046AB420CD0134A0133402BA9
:1020F0001479184C28BF0023E45CE4B2D471127D3B
:10210000072AF0D9DBB203700B4B1A79120644BFD1
:102110007C22DA704B060ED5074B1A7912F0400F6D
:10212000194608D00C4B00221A700C4B1B6803B1E7
:102130001A703C23CB7030BD00A006407AA6FF1F6A
:10214000F9A5FF1F3AA6FF1FF4A5FF1F80A6FF1FDA
:102150007BA6FF1FFAA5FF1FF8A5FF1F7CA6FF1F88
:10216000194B1A6842F400621A60184A002313706F
:10217000174A1370174A1370174A1370174A1370CF
:10218000174B40F213321A604FF451725A60154BDC
:10219000C0F344321A70C0F347125A7000F01F00A7
:1021A0000422022198729A70D9745A7588221A747E
:1021B0003C22DA700C4B40221A70A3F22B334FF4FE
:1021C00000421A60704700BF34800440F2A6FF1F2F
:1021D00089A6FF1FF8A6FF1FF3A6FF1F88A6FF1FF3
:1021E0000CB0044000B006402FE400E0134A93789E
:1021F00000F0030103F0EC030B43410748BF43F039
:102200001003937000F00F03042B0C4903D18B795A
:1022100043F040038B715379C20603F0EF03074A82
:1022200048BF43F0100353719379810603F0EF0325
:1022300048BF43F010039371704700BF00B00640E1
:1022400008B5114B1B681B0500D408BD0F4B1A784D
:1022500002F0FF0312B1FFF717FBF7E70C4A4FF448
:10226000004111600B4A0C49D37040F203120A601E
:102270004A600A4A13700A4A13700A4B1B680BB172
:1022800001221A7008BD00BF3480044088A6FF1FD9
:1022900084E100E000B006400CB00440F2A6FF1F4D
:1022A00089A6FF1F84A6FF1F38B50446094B1B787B
:1022B00003F0FF05002BF9D120460121FEF7C8FCF1
:1022C00020462946FEF7A4FC034B53F83420034B69
:1022D0001A6038BD88A6FF1F5C780000F4A6FF1FB7
:1022E0000D4A38B5146814F400624FF0000410D0A1
:1022F00021280A4D0AD80A4A012152F830302B60B1
:10230000FEF7A6FC2B681C70012038BD2C6020460F
:1023100038BD104638BD00BF3480044084A6FF1F7E
:102320005C7800000B4B1B6813F4006310D0172877
:10233000094B09D1094A40F2023111605A7B42F03F
:1023400001025A73012070475A7B02F0FE025A7351
:10235000002070473480044000B0064008B00440BC
:10236000F8B51D4B1B681A05064633D51B4B1B6879
:102370000BB101221A701A4B1C780134282C1F460D
:1023800028BF0024174D2B78A34218D1FEF7F4FB89
:1023900040280FDC144A13791B06F3D52B78134918
:1023A0000133282B28BF0023C95CDBB2C9B2D1712D
:1023B0002B70E7E7FF28E5DDFFF766FAE2E70B4B56
:1023C000F6B21E550A4B01221A70074BE4B2BC222A
:1023D0003C70DA70F8BD00BF34800440F4A6FF1FE3
:1023E000F8A6FF1FF3A6FF1F00B006408AA6FF1F36
:1023F00088A6FF1F274B1B681A052DE9F0470746E3
:102400008A4644D5244B1B680BB101221A703D4605
:1024100007EB0A039D4237D2DFF890801F4E98F8F1
:10242000004096F800900134282C28BF00245FFA61
:1024300089F9A1451DD11A4BBC22DA70FEF79CFB2D
:1024400040280FDC164A13791B060FD5337815493F
:102450000133282B28BF0023C95CDBB2C9B2D1717C
:10246000337003E0FF2801DDFFF70EFA33784B45A8
:10247000E4D00C4B15F8012B1A550B4B0122E4B29A
:102480001A7088F80040C3E7054BBC22DA70BDE83B
:10249000F08700BF34800440F4A6FF1FF3A6FF1F9F
:1024A00000B006408AA6FF1F88A6FF1FF8A6FF1FE0
:1024B00008B5034B1B7813B1FFF7E6F9F9E708BD40
:1024C00088A6FF1F064A074B1B781078DBB2C0B204
:1024D00083422CBF273000F1FF30C01A704700BF85
:1024E000F3A6FF1FF8A6FF1F054B1878054B1B78B6
:1024F000C0B2DBB2984238BF4030C01A704700BF4C
:10250000F2A6FF1F89A6FF1F10B5104B10491A78BD
:102510000B78D2B2DBB29A4214D00133402B28BFE1
:1025200000230C48DCB2C05C0C700B490968C0B2D7
:1025300051B19A4238BF4032D31A1A2B04DC00231F
:102540000B7010BD4FF0FF3010BD00BFF2A6FF1F93
:1025500089A6FF1FB2A6FF1F84A6FF1F084B1A788B
:10256000084B1B78DBB29A4207D00133402B28BFBF
:102570000023054AD05CC0B270474FF0FF3070476F
:10258000F2A6FF1F89A6FF1FB2A6FF1F0C4B1B68F8
:102590001B0514D50B4BDA7802F0CB02DA7040221F
:1025A0005A74DA7842F03402DA70074B1A78074B23
:1025B000D2B21A70064B1B680BB100221A7070471A
:1025C0003480044000B0064089A6FF1FF2A6FF1F1A
:1025D00084A6FF1F30B5374B1A7912F0300F31D077
:1025E00072B69A7D02F0FF0022B9DA7940225A745D
:1025F00062B627E062B6304A304913780978DBB218
:10260000C9B214462B4AD5795A1C402A28BF002249
:102610008A42EDB202D02A4B9D541346421E12F05C
:10262000FF00EFD1DAB22270264A126852B18B4213
:1026300036BFC1F14001C1EB03035B18272BC4BFB8
:10264000012313701B4BD978C9B20C0620D51B7916
:1026500018061DD51C4B1D4A1D781378EDB2DBB250
:102660001046AB420CD0134A0133282B1479184C76
:1026700028BF0023E45CE4B2D471127D072AF0D9AC
:10268000DBB203700B4B1A79120644BF7C22DA705E
:102690004B060ED5074B1A7912F0400F194608D099
:1026A0000C4B00221A700C4B1B6803B11A703C23B0
:1026B000CB7030BD00B00640F2A6FF1F89A6FF1FF9
:1026C000B2A6FF1F84A6FF1FF8A6FF1FF3A6FF1FD9
:1026D0008AA6FF1F88A6FF1FF4A6FF1F174B1A68C4
:1026E00042F480521A60164A00231370154A137080
:1026F000154A1370154A1370154A1370154A40F2A3
:10270000133111604FF451715160134AC0F34431D9
:102710001170C0F3471100F01F0051709072937058
:1027200013742C23D3700D4B40226FF44B711A702D
:102730000B444FF400321A60704700BF34800440ED
:102740006AA7FF1F01A7FF1F70A7FF1F6BA7FF1F2F
:1027500000A7FF1F08C0044000C0064031E400E0AD
:10276000134A937800F0030103F0EC030B43410795
:1027700048BF43F01003937000F00F03042B0C4983
:1027800003D18B7943F040038B715379C20603F078
:10279000EF03074A48BF43F0100353719379810652
:1027A00003F0EF0348BF43F010039371704700BF7D
:1027B00000C0064008B5114B1B68DB0400D408BDFF
:1027C0000F4B1A7802F0FF0312B1FFF75DF8F7E73D
:1027D0000C4A4FF4003111600B4A0C49D37040F29F
:1027E00003120A604A600A4A13700A4A13700A4BBD
:1027F0001B680BB101221A7008BD00BF3480044071
:1028000000A7FF1F84E100E000C0064008C00440AC
:102810006AA7FF1F01A7FF1FFCA6FF1F38B50446CC
:10282000094B1B7803F0FF05002BF9D1204601214D
:10283000FEF70EFA20462946FEF7EAF9034B53F855
:102840003420034B1A6038BD00A7FF1F5C780000DE
:102850006CA7FF1F0D4A38B5146814F480524FF06E
:10286000000410D021280A4D0AD80A4A012152F842
:1028700030302B60FEF7ECF92B681C70012038BD5E
:102880002C60204638BD104638BD00BF348004405F
:10289000FCA6FF1F5C7800000B4B1B6813F48053F1
:1028A00010D00E28094B09D1094A40F202311160BB
:1028B0005A7B42F001025A73012070475A7B02F0A2
:1028C000FE025A73002070473480044000C0064066
:1028D00004C00440F8B51D4B1B68DA04064633D526
:1028E0001B4B1B680BB101221A701A4B1C78013468
:1028F000282C1F4628BF0024174D2B78A34218D13F
:10290000FEF73AF940280FDC144A13791B06F3D579
:102910002B7813490133282B28BF0023C95CDBB275
:10292000C9B2D1712B70E7E7FF28E5DDFEF7ACFFF8
:10293000E2E70B4BF6B21E550A4B01221A70074B09
:10294000E4B2AC223C70DA70F8BD00BF34800440C1
:102950006CA7FF1F70A7FF1F6BA7FF1F00C00640DB
:1029600002A7FF1F00A7FF1F38B504464518AC4259
:1029700004D014F8010BFFF7ADFFF8E738BDFFFFF7
:1029800008B5034B1B7813B1FEF77EFFF9E708BDCE
:1029900000A7FF1F064A074B1B781078DBB2C0B2B6
:1029A00083422CBF273000F1FF30C01A704700BFB0
:1029B0006BA7FF1F70A7FF1F054B1878054B1B78EF
:1029C000C0B2DBB2984238BF4030C01A704700BF77
:1029D0006AA7FF1F01A7FF1F10B5104B10491A78F7
:1029E0000B78D2B2DBB29A4214D00133402B28BF0D
:1029F00000230C48DCB2C05C0C700B490968C0B203
:102A000051B19A4238BF4032D31A1A2B04DC00234A
:102A10000B7010BD4FF0FF3010BD00BF6AA7FF1F45
:102A200001A7FF1F2AA7FF1FFCA6FF1F084B1A784C
:102A3000084B1B78DBB29A4207D00133402B28BFEA
:102A40000023054AD05CC0B270474FF0FF3070479A
:102A50006AA7FF1F01A7FF1F2AA7FF1F054B1A78B0
:102A6000054BD2B21A70054B1B680BB100221A70CD
:102A7000704700BF01A7FF1F6AA7FF1FFCA6FF1F2B
:102A800010B5294B1A79920620D5284AD87913789F
:102A900027490133402B097828BF00238B42C0B25D
:102AA00003D02449C854D9B21170234A116869B1BE
:102AB000224A1278D2B2934236BFC2F14002C2EB30
:102AC00003039B18272BC4BF01230B70164AD17830
:102AD000C9B20C0616D51379180613D5184B17482A
:102AE0001C780378DBB29C4202D16C23D37009E0DE
:102AF0000133282B28BF0023124CE45CDBB2E4B284
:102B0000D47103704B060ED5074B1A7912F0400FA3
:102B1000194608D00C4B00221A700C4B1B6803B1ED
:102B20001A702C23CB7010BD00C006406AA7FF1F8F
:102B300001A7FF1F2AA7FF1FFCA6FF1F6BA7FF1FF0
:102B400070A7FF1F02A7FF1F00A7FF1F6CA7FF1F93
:102B50001FB572B6154B70221A70154A41211170BB
:102B60000F2102F8011C80221A701A781206FCD577
:102B7000104B186862B6104B984298BF0A2301ACFC
:102B800098BF584321460A22FEF714F80023E15C5F
:102B90000A4A29B102EB430001330A2B4180F6D1E6
:102BA00001335B00137004B010BD00BF0000024091
:102BB00007000240080002407F969800A49BFF1F78
:102BC00081F0004102E000BF83F0004330B54FEADE
:102BD00041044FEA430594EA050F08BF90EA020F4B
:102BE0001FBF54EA000C55EA020C7FEA645C7FEADE
:102BF000655C00F0E2804FEA5454D4EB5555B8BF01
:102C00006D420CDD2C4480EA020281EA030382EA71
:102C1000000083EA010180EA020281EA0303362D03
:102C200088BF30BD11F0004F4FEA01314FF4801CD6
:102C30004CEA113102D0404261EB410113F0004FE8
:102C40004FEA03334CEA133302D0524263EB43039F
:102C500094EA050F00F0A780A4F10104D5F1200E3D
:102C60000DDB02FA0EFC22FA05F2801841F1000198
:102C700003FA0EF2801843FA05F359410EE0A5F16C
:102C800020050EF1200E012A03FA0EFC28BF4CF09D
:102C9000020C43FA05F3C01851EBE37101F0004553
:102CA00007D54FF0000EDCF1000C7EEB00006EEB60
:102CB0000101B1F5801F1BD3B1F5001F0CD34908EA
:102CC0005FEA30004FEA3C0C04F101044FEA445241
:102CD00012F5800F80F09A80BCF1004F08BF5FEAC8
:102CE000500C50F1000041EB045141EA050130BDA8
:102CF0005FEA4C0C404141EB010111F4801FA4F14B
:102D00000104E9D191F0000F04BF01460020B1FA9F
:102D100081F308BF2033A3F10B03B3F120020CDAD7
:102D20000C3208DD02F1140CC2F10C0201FA0CF0B5
:102D300021FA02F10CE002F11402D8BFC2F1200C1A
:102D400001FA02F120FA0CFCDCBF41EA0C019040D0
:102D5000E41AA2BF01EB0451294330BD6FEA040419
:102D60001F3C1CDA0C340EDC04F11404C4F1200204
:102D700020FA04F001FA02F340EA030021FA04F316
:102D800045EA030130BDC4F10C04C4F1200220FA6D
:102D900002F001FA04F340EA0300294630BD21FAAB
:102DA00004F0294630BD94F0000F83F4801306BF71
:102DB00081F480110134013D4EE77FEA645C18BF65
:102DC0007FEA655C29D094EA050F08BF90EA020FFC
:102DD00005D054EA000C04BF1946104630BD91EAF4
:102DE000030F1EBF0021002030BD5FEA545C05D1F7
:102DF0004000494128BF41F0004130BD14F5800436
:102E00003CBF01F5801130BD01F0004545F0FE41A9
:102E100041F470014FF0000030BD7FEA645C1ABFDE
:102E2000194610467FEA655C1CBF0B46024650EA15
:102E3000013406BF52EA033591EA030F41F4002141
:102E400030BD00BF90F0000F04BF0021704730B5C7
:102E50004FF4806404F132044FF000054FF000019C
:102E600050E700BF90F0000F04BF0021704730B55D
:102E70004FF4806404F1320410F0004548BF404232
:102E80004FF000013EE700BF42004FEAE2014FEA87
:102E900031014FEA02701FBF12F07F4393F07F4F62
:102EA00081F06051704792F0000F14BF93F07F4F94
:102EB000704730B54FF4607401F0004521F00041D7
:102EC00020E700BF50EA010208BF704730B54FF05D
:102ED00000050AE050EA010208BF704730B511F062
:102EE000004502D5404261EB41014FF4806404F19A
:102EF00032045FEA915C3FF4DCAE4FF003025FEA1C
:102F0000DC0C18BF03325FEADC0C18BF033202EBA3
:102F1000DC02C2F1200300FA03FC20FA02F001FAFD
:102F200003FE40EA0E0021FA02F11444C1E600BF9C
:102F300070B54FF0FF0C4CF4E06C1CEA11541DBF4F
:102F40001CEA135594EA0C0F95EA0C0F00F0DEF81A
:102F50002C4481EA030621EA4C5123EA4C5350EAFF
:102F6000013518BF52EA033541F4801143F4801350
:102F700038D0A0FB02CE4FF00005E1FB02E506F0E1
:102F80000042E0FB03E54FF00006E1FB03569CF036
:102F9000000F18BF4EF0010EA4F1FF04B6F5007F3C
:102FA00064F5407404D25FEA4E0E6D4146EB0606AE
:102FB00042EAC62141EA55514FEAC52040EA5E5037
:102FC0004FEACE2EB4F1FD0C88BFBCF5E06F1ED8E1
:102FD000BEF1004F08BF5FEA500E50F1000041EB18
:102FE000045170BD06F0004646EA010140EA0200C5
:102FF00081EA0301B4EB5C04C2BFD4EB0C0541EAE7
:10300000045170BD41F480114FF0000E013C00F3FB
:10301000AB8014F1360FDEBF002001F0004170BD1F
:10302000C4F10004203C35DA0C341BDC04F1140438
:10303000C4F1200500FA05F320FA04F001FA05F2C4
:1030400040EA020001F0004221F0004110EBD37091
:1030500021FA04F642EB06015EEA430E08BF20EABD
:10306000D37070BDC4F10C04C4F1200500FA04F360
:1030700020FA05F001FA04F240EA020001F00041F2
:1030800010EBD37041F100015EEA430E08BF20EA65
:10309000D37070BDC4F1200500FA05F24EEA020EAD
:1030A00020FA04F301FA05F243EA020321FA04F0DC
:1030B00001F0004121FA04F220EA020000EBD37093
:1030C0005EEA430E08BF20EAD37070BD94F0000F93
:1030D0000FD101F00046400041EB010111F4801FC7
:1030E00008BF013CF7D041EA060195F0000F18BF78
:1030F000704703F00046520043EB030313F4801FB4
:1031000008BF013DF7D043EA0603704794EA0C0F6D
:103110000CEA135518BF95EA0C0F0CD050EA410683
:1031200018BF52EA4306D1D181EA030101F0004100
:103130004FF0000070BD50EA410606BF1046194628
:1031400052EA430619D094EA0C0F02D150EA013634
:1031500013D195EA0C0F05D152EA03361CBF104675
:1031600019460AD181EA030101F0004141F0FE4114
:1031700041F470014FF0000070BD41F0FE4141F498
:10318000780170BD70B54FF0FF0C4CF4E06C1CEA98
:1031900011541DBF1CEA135594EA0C0F95EA0C0F4D
:1031A00000F0A7F8A4EB050481EA030E52EA033508
:1031B0004FEA013100F088804FEA03334FF0805529
:1031C00045EA131343EA12634FEA022245EA111556
:1031D00045EA10654FEA00260EF000419D4208BF07
:1031E000964244F1FD0404F5407402D25B084FEAB4
:1031F0003202B61A65EB03055B084FEA32024FF460
:1032000080104FF4002CB6EB020E75EB030E22BFBC
:10321000B61A754640EA0C005B084FEA3202B6EB7C
:10322000020E75EB030E22BFB61A754640EA5C002B
:103230005B084FEA3202B6EB020E75EB030E22BFBB
:10324000B61A754640EA9C005B084FEA3202B6EBBC
:10325000020E75EB030E22BFB61A754640EADC007B
:1032600055EA060E18D04FEA051545EA16754FEADD
:1032700006164FEAC30343EA52734FEAC2025FEAFB
:103280001C1CC0D111F4801F0BD141EA00014FF08A
:1032900000004FF0004CB6E711F4801F04BF01435B
:1032A0000020B4F1FD0C88BFBCF5E06F3FF6AFAE77
:1032B000B5EB030C04BFB6EB020C5FEA500C50F107
:1032C000000041EB045170BD0EF0004E4EEA11318A
:1032D00014EB5C04C2BFD4EB0C0541EA045170BD91
:1032E00041F480114FF0000E013C90E645EA060ED5
:1032F0008DE60CEA135594EA0C0F08BF95EA0C0F03
:103300003FF43BAF94EA0C0F0AD150EA01347FF44A
:1033100034AF95EA0C0F7FF425AF104619462CE721
:1033200095EA0C0F06D152EA03353FF4FDAE104684
:10333000194622E750EA410618BF52EA43067FF4D5
:10334000C5AE50EA41047FF40DAF52EA43057FF465
:10335000EBAE12E74FF0FF3C06E000BF4FF0010C70
:1033600002E000BF4FF0010C4DF804CD4FEA410CD4
:103370007FEA6C5C4FEA430C18BF7FEA6C5C1BD0A1
:1033800001B050EA410C0CBF52EA430C91EA030F22
:1033900002BF90EA020F0020704710F1000F91EA7F
:1033A000030F58BF994208BF90422CBFD8176FEA4D
:1033B000E37040F0010070474FEA410C7FEA6C5C1B
:1033C00002D150EA013C07D14FEA430C7FEA6C5C22
:1033D000D6D152EA033CD3D05DF8040B704700BF4E
:1033E0008446104662468C461946634600E000BF9C
:1033F00001B5FFF7B7FF002848BF10F1000F01BD6E
:103400004DF808EDFFF7F4FF0CBF012000205DF838
:1034100008FB00BF4DF808EDFFF7EAFF34BF0120BD
:1034200000205DF808FB00BF4DF808EDFFF7E0FF56
:1034300094BF012000205DF808FB00BF4DF808EDA7
:10344000FFF7CEFF94BF012000205DF808FB00BF0E
:103450004DF808EDFFF7C4FF34BF012000205DF8F0
:1034600008FB00BF30B50D4C0023218803710C22EE
:1034700001230B4207D10A4A19432180118821EA0E
:103480000303138030BD05795B000135013A0571F6
:103490009BB2EED1FF23037130BD00BF7CA7FF1F9D
:1034A00078A7FF1F2DE9F0411F4603790B2B044637
:1034B00016463BD85FFA81F840460121FDF7C8FB6C
:1034C00025791C4B03F805801B4B43F2BC4223F8C3
:1034D00015201A4B012202FA05F51A8815431D80A2
:1034E000174B1A6806EBC60607EBC70712F48002F3
:1034F0002680678016D1196841F480011960A3F510
:103500009033383B4FF6FF7119605A609A6042F66B
:10351000A27243F8042C02F5803243F8042C094BC4
:1035200020221A70084B4FF480721A602079BDE88F
:10353000F08100BF96A7FF1F7EA7FF1F78A7FF1F80
:103540003C80044048E400E008E100E04FF40872E9
:103550004FF41663FFF7A6BF038801EBC101994240
:1035600003DB43889942B8BF0B4602790B2A9CBF04
:10357000014921F8123070477EA7FF1F13B5047967
:103580000B2C024616D8B1F5087F04DB02B0BDE86B
:103590001040FFF7E1BF13885288009221EAE170E2
:1035A000B428A8BFB4200021B42200F077F8024B61
:1035B00023F8140002B010BD7EA7FF1F70B52E4A7D
:1035C0002E4D118895F90030194111F0010F144664
:1035D00006D02B4A0021D05CFDF71AFB0C232B7080
:1035E0002088284C2178CBB25AB20B2A1FDC40FA33
:1035F00002F60131F607C9B2F5D52370204B01213F
:10360000985CFDF705FB23781F4A2B7059B20133F4
:1036100032F811101D4A1068084410601C4A1068E6
:103620000144116042F6A37142F80C1C22E0174AD3
:1036300023701168C1F52F3303F54873B3F5617F2B
:1036400005DB4EF660208342A8BF034601E04FF43D
:103650006173194411600E49086803440B600D4BF7
:1036600042F6A371196012680B4B9A4203D9074ABC
:1036700000231360237070BD78A7FF1FBA9BFF1F44
:1036800096A7FF1F7AA7FF1F7EA7FF1F74A7FF1F24
:103690000C600340006003401FBF020010B5029C95
:1036A000401AE41A4443521A94FBF2F0184410BD35
:1036B00070B50F4E0F4D761BB61007D0043D002499
:1036C000013455F8043F9847A642F9D10A4E0B4DF4
:1036D000761B04F0CFFAB61008D0043D0024013464
:1036E00055F8043F9847A642F9D170BD70BD00BFA0
:1036F000807C0000807C00009C7C0000807C0000BE
:10370000024B0146186800F003B800BFE89FFF1F96
:103710002DE9F04F01F10B05162D83B0064627D990
:1037200035F0070527D4A94225D8304600F036FBEE
:10373000B5F5FC7F26D2C14F4FEAD50C07EBCC0381
:10374000DC689C4200F0D2816368E268A16823F0E3
:103750000303234430465D68CA6045F0010591606B
:103760005D6000F01DFB0834204603B0BDE8F08F1B
:103770001025A942D9D900240C232046336003B078
:10378000BDE8F08F5FEA552C00F08A80BCF1040F91
:1037900000F260814FEA951C0CF1380C4FEA4C01A5
:1037A000A64F07EB8101CC68A14205D10CE0002BAC
:1037B0007ADAE468A14207D0626822F00302531B60
:1037C0000F2BF4DD0CF1FF3C0CF1010C9B4B3C6921
:1037D00003F1080E744500F07E81616821F0030159
:1037E0004A1B0F2A00F36481002AC3F814E0C3F8CF
:1037F00010E06ADAB1F5007F80F03A81C90803EB86
:10380000C1004FEAA1085A688168A1604FF0010920
:1038100009FA08F848EA0202E0605A608460CC6065
:103820004FEAAC030120984090425BD8024206D197
:103830002CF0030C400002420CF1040CFAD007EB10
:10384000CC084446E146E3689C4207D145E1002AA2
:1038500080F25681DB689C4200F03F81596821F07C
:1038600003014A1B0F2AF2DD1C46D3F80CC054F8A2
:10387000088F591945F0010942F00105C3F8049079
:103880003046C8F80CC0CCF8088079613961C1F8BD
:103890000CE0C1F808E04D608A5000F081FA63E75F
:1038A0007E214FF03F0C7BE72244E3685068A1681B
:1038B00040F00105CB6030469960556000F070FA29
:1038C0000834204603B0BDE8F08F214430464B68F1
:1038D00043F001034B6000F063FA0834204603B064
:1038E000BDE8F08FBC68636823F00309A94504D3E1
:1038F000C5EB09030F2B00F39180514B514A196816
:103900001368013305EB010A04EB090B00F0618138
:103910000AF5805A0AF10F0A2AF47F6A2AF00F0A80
:1039200030465146019200F023FCB0F1FF3F804643
:10393000019A00F00081834500F2FA80DFF810C19F
:10394000DCF80030C3455344CCF8003000F04A8125
:1039500012683C4901321BBFCBEB080B5B44C1F83A
:103960000080CCF8003018F0070300F01381C3F199
:103970000802C3F5805390440833C244CAF30B0ACB
:10398000CAEB030A51463046CDF804C000F0F0FB04
:10399000431CDDF804C000F03581C8EB000252443E
:1039A00042F00102DCF80030C7F808805344BC4202
:1039B000C8F80420CCF80030DFF894A015D0B9F195
:1039C0000F0F40F2EA806168A9F10C0222F00702B1
:1039D00001F0010EA118052042EA0E0E0F2AC4F8CC
:1039E00004E04860886000F21181174ABC681168E1
:1039F0008B4288BF1360154A11688B4288BF1360E1
:103A0000626822F003029542C5EB020301D80F2B36
:103A100004DC304600F0C4F90024A5E6621943F046
:103A2000010345F0010565603046BA60536000F05F
:103A3000B7F90834204603B0BDE8F08FEC9FFF1FB4
:103A4000ACA7FF1FF8A3FF1FA8A7FF1FA4A7FF1F76
:103A5000B0A7FF1FBCF1140F61D9BCF1540F00F2E5
:103A60008F804FEA153C0CF16E0C4FEA4C0197E643
:103A70004B0A042B58D9142B00F2AE8003F15B02E1
:103A8000500007EB8000DFF8BC818368834200F0C0
:103A90008A805A6822F00302914202D29B689842BF
:103AA000F7D1D9687A68E160A3608C60DC60B7E622
:103AB000611942F0010745F0010565603046596122
:103AC0001961C1F80CE0C1F808E04F608A50083471
:103AD00000F066F948E65A68A2E609F1010919F012
:103AE000030F04F108047FF4AEAE2DE004F10803E7
:103AF0006469A34208BF0CF1020C3FF467AE23E6F1
:103B000019441C464868DB6854F8082F40F001054A
:103B10004D603046D3609A6000F042F924E60CF123
:103B20005B0C4FEA4C013BE68A0938325000A8E7AB
:103B3000BC423FF403AFBC68626822F0030262E754
:103B4000D8F8008098457BD11CF0030FA8F108033A
:103B50000CF1FF3CF4D17B6823EA00037B6040005A
:103B600098423FF6BFAE00283FF4BCAE0342CC46BD
:103B70007FF465AE400003420CF1040CFAD05EE61F
:103B8000BCF5AA7F1AD84FEAD53C0CF1770C4FEA66
:103B90004C0105E64FF48053EFE60123C8F80430EA
:103BA000444600222FE791100120D8F8042000FAA3
:103BB00001F10A43C8F80420194674E740F254534F
:103BC0009C451BD84FEA954C0CF17C0C4FEA4C01FC
:103BD000E6E50AF1100AA3E6542B1FD80A0B6E3251
:103BE00050004EE7CBF30B0100297FF4B1AE0AEB96
:103BF0000901BA6841F001015160F6E6FC214FF07D
:103C00007E0CCDE501224FF0000ACBE604F108015D
:103C1000304602F0BBFDDAF80030E6E6B3F5AA7FE5
:103C200003D8CA0B773250002BE740F2545293422C
:103C300003D88A0C7C32500023E7FC207E2220E748
:103C40007B688CE7EC9FFF1F8842F0B410D98C187A
:103C5000A0420DD28518531E42B121462A4611F8C2
:103C6000014D02F8014D013B5C1CF8D1F0BC7047DE
:103C70000F2A3FD940EA01039B073FD1A2F1100769
:103C80003F0900EB071610360C46034625681D60F9
:103C900065685D60A5689D60E568DD601033B342CE
:103CA00004F11004F2D17B1C02F00F0C1B01BCF1DB
:103CB000030F1944034423D90E461D466446043CB1
:103CC00056F8047B45F8047B032CF8D8ACF10404C7
:103CD00024F00304043402F0030223442144002AA4
:103CE000C4D01A4411F8014B03F8014B9342F9D1A7
:103CF000F0BC70470346002AF3D1B7E70346F0E76C
:103D00006246002AEDD1B1E7F0B4840743D0541ED7
:103D1000002A3ED0CDB2034603E0621E002C38D00C
:103D2000144603F8015B9A07F7D1032C2AD9CDB2C8
:103D300045EA05250F2C45EA054515D9A4F11007DC
:103D40003F0903F1100606EB07161A461560556089
:103D50009560D5601032B242F8D104F00F040137FB
:103D6000032C03EB07130DD91E462246043A032AFF
:103D700046F8045BFAD8221F22F0030204321344EF
:103D800004F003042CB1C9B21C4403F8011BA34284
:103D9000FBD1F0BC704714460346C6E7704700BF2E
:103DA000704700BF2DE9F04F0C4683B09046814626
:103DB000002900F0E280FFF7F1FF08F10B0654F84C
:103DC000043C162E23F00305A4F108074BD810215C
:103DD0000E46B0454CD88D4278DADFF890B3DBF868
:103DE00008E07819864500F0CE80426822F0010C88
:103DF0008444DCF804C01CF0010F7AD00022104685
:103E0000DB0700F1928054F8083CC3EB070ADAF8AC
:103E1000043023F003032B4488B3704500F0ED8099
:103E200002EB030E8E452ADBC36882685746D360D7
:103E30009A6057F8081FDAF80C30CB602A1F242A42
:103E4000996000F22681132A40F2B3802368CAF8F1
:103E500008306368CAF80C301B2A00F2308108343D
:103E60000AF11003A6E026F00706002E3146B0DA6C
:103E70000C230020C9F8003003B0BDE8F08F8B425E
:103E800053DB5746DAF80C1057F8080F2A1F242A7C
:103E9000C160886000F20981132A40F20481216820
:103EA000CAF808106168CAF80C101B2A00F21C81BD
:103EB00008340AF110022168116061685160A1683C
:103EC00091601D46DAF804303C465746AA1B0F2A7B
:103ED00003F0010319D82B433D447B606B6843F02A
:103EE00001036B604846FFF75BFF204603B0BDE867
:103EF000F08F22F0030202EB050C8C4580DBC268D8
:103F000081686546CA609160E0E7B91942F0010036
:103F10001E430A447E604860536843F00103083141
:103F20005360484602F032FCDCE741464846FFF762
:103F3000EFFB8046D0B154F8043C23F001023A4430
:103F4000A0F10801914200F09E802A1F242A50D837
:103F5000132A23D803462246116819605168596014
:103F600092689A602146484602F010FC4846FFF7E6
:103F700017FF404603B0BDE8F08F114603B0BDE81F
:103F8000F04FFFF7C5BBDEF8042022F00302501902
:103F900006F1100C604519DA704631E723680360BA
:103FA000636843601B2A63D800F1080304F1080228
:103FB000D2E73B4622681A6062685A60A2689A603B
:103FC0003C467546DAF8043057467FE73744831B92
:103FD00043F00103CBF808707B6054F8043C03F015
:103FE00001031E43484644F8046CFFF7D9FE2046FF
:103FF0007CE72146FFF728FEB4E702EB030C06F14D
:1040000010029445FFF63BAF5746DAF80C3057F8EC
:10401000081F2A1F242ACB60996000F28780132A88
:1040200078D92368CAF808306368CAF80C301B2AAC
:1040300000F2858008340AF1100322681A60626871
:104040005A60A2689A600AEB0603C6EB0C0242F0C3
:104050000102CBF808305A60DAF8043003F00103AB
:104060001E434846CAF80460FFF79AFE38463DE70B
:10407000A3688360E368C360242A2CD000F1100396
:1040800004F1100268E750F8042C22F003021544F2
:104090001CE72146384675463C46FFF7D5FD574696
:1040A000DAF8043012E73A4605E7214638461D465D
:1040B0003C46FFF7C9FD5746DAF8043006E7A36827
:1040C000CAF81030E368CAF81430242A18D0103423
:1040D0000AF118036EE7236903616369436104F120
:1040E000180200F1180337E7A168CAF81010E16858
:1040F000CAF81410242A0FD010340AF11802DAE694
:104100002369CAF818306369CAF81C3018340AF1F8
:1041100020034FE73B4690E72269CAF818206269FE
:10412000CAF81C2018340AF12002C4E62146384699
:10413000CDF804C0FFF788FDDDF804C083E7A3686D
:10414000CAF81030E368CAF81430242A03D01034B7
:104150000AF1180371E72369CAF818306369CAF8CD
:104160001C3018340AF1200367E700BFEC9FFF1FE3
:1041700038B5074C0023054608462360FCF7F4FCDD
:10418000431C00D038BD2368002BFBD02B6038BD0A
:10419000ECA7FF1F0EB4F0B59CB021AB0F4953F84C
:1041A000042B019305466FF00044086802954FF414
:1041B00002774FF6FF7602A90695ADF814700494C5
:1041C0000794ADF8166000F03BF8029B00221A70CD
:1041D0001CB0BDE8F04003B0704700BFE89FFF1F70
:1041E00020F0030110F00300C0F1000051F8043B7F
:1041F00000F1040C4FEACC0C6FF000021CBF22FA55
:104200000CF213434FF0010C4CEA0C2C4CEA0C4C12
:10421000A3EB0C0222EA030212EACC1204BF51F80B
:10422000043B0430F4D013F0FF0F1FBF013013F430
:104230007F4F013013F47F0F18BF0130704700BF6C
:104240002DE9F04FC9B0914610930C910D9002F0FA
:104250006BFB00681590FFF7C3FF0C9C1890A389B7
:104260001A0603D52369002B01F08D8038ACA446D3
:1042700008942B9400250024CDE9164500231193C2
:104280002D932C931A9319930E93664699F8003048
:10429000002B00F0F880252B00F0F58009F10102D9
:1042A00001E0252B04D0144601322378002BF8D1ED
:1042B000C9EB04057DB12C9B2D9AC6F80090013303
:1042C0002A44072B75602D922C9300F3C280083688
:1042D0000E9828440E902378002B00F0C280002313
:1042E00094F801808DF88F301A460F93099304F1EA
:1042F00001094FF0FF340A9409F10109A8F12003E4
:10430000582B00F2C783DFE813F06A02C503C50328
:104310007102C503C503C503C503C503C503140363
:104320006403C5039D00C000C50378027F027F02BD
:104330007F027F027F027F027F027F027F02C5032E
:10434000C503C503C503C503C503C503C503C5032D
:10435000C50390026F03C5036F03C503C503C503FF
:10436000C5036803C503C5037800C503C503C503BA
:10437000C503C5035900C503C503AF02C503C50383
:10438000C503C503C503C503C503C503C503C503ED
:10439000370348036F036F036F03FF024803C5032E
:1043A000C5030803C503C5027C002103A503C5039B
:1043B000D902C5035F00C503C503DE00DDF824C0D4
:1043C0004CF0100CCDF824C0099CA20600F15683D5
:1043D000099CE30600F1E085DDF824C01CF0400FE5
:1043E00000F0DA85DDF840C0BCF800400CF1040CA8
:1043F00000250123CDF840C08CE0099D45F0100553
:104400000995DDF824C01CF0200340F02C83DDF872
:1044100024C01CF0100240F0B885DDF824C01CF068
:10442000400300F0B285DDF840C0BCF800400CF15C
:10443000040C13460025CDF840C06BE00F9C109390
:1044400064420F94099D45F00405099599F8008090
:1044500052E70D980C992BAA02F0E4FD40B938AE52
:1044600036E72D9B23B10D980C992BAA02F0DAFDAB
:104470000C9C0E98A38913F0400F18BF4FF0FF302B
:1044800049B0BDE8F08F4C4625E799F80080B8F1B7
:104490002A0F09F1010001F01881A8F13003092B5E
:1044A00098BF002101F2778010F8018B01EB8101A8
:1044B00003EB4101A8F13003092BF5D941EAE17181
:1044C0000A9181461AE7099DA14C1A94AF068DF80E
:1044D0008F2040F1D181DDF840C00CF1070323F0BB
:1044E000070303F108041094D3E90045DDF824C064
:1044F0001CF0010F00F0648454EA050000F06084B1
:1045000030234CF0020C8DF890308DF89180CDF86E
:1045100024C002234FF0000A8DF88FA00A990029C9
:1045200005DBDDF824C02CF0800CCDF824C054EA63
:10453000050040F0C7820A99002940F0C382002B91
:1045400040F03A84DDF824C01CF0010F00F0348400
:1045500048AF302307F8413D089DEC1BDDF828C02B
:1045600000256445A8BFA446CDF82CC01495BAF127
:10457000000F02D00B9D01350B95099B13F0020330
:10458000129302D00B9D02350B95DDF824C01CF070
:10459000840CCDF84CC040F092820F9DDDF82CC009
:1045A000CCEB050BBBF1000F40F38982BBF1100F80
:1045B0002D992C9ADFF8A0A12CDD1B973046574689
:1045C0001025CA460C9EA1460D9C06E0ABF1100BCF
:1045D000BBF1100F00F1080017DD01321031072A7E
:1045E0002D912C9207604560F0DD204631462BAAC4
:1045F00002F018FD00287FF43BAFABF1100BBBF1CC
:10460000100F2D992C9A38A8E7DC4C46D146BA46B3
:104610001B9F064601320BEB010C072ACDF8B4C0F4
:104620002C9286E8000C00F31C849DF88FA00836BD
:10463000BAF1000F0FD02C9B01330CF1010C0DF1DE
:104640008F010122072BCDF8B4C02C9386E8060019
:1046500000F39A830836129B73B12C9B01330CF143
:10466000020C24A90222072BCDF8B4C02C9386E8B3
:10467000060000F395830836139D802D00F0CC8250
:104680000A9DC4EB050ABAF1000F3BDDBAF1100F29
:104690002C9B304D2BDD0A9432464FF0100B2E46EA
:1046A00061460D9C0C9D06E0AAF1100ABAF1100FAC
:1046B00002F1080217DD01331031072B2D912C93E5
:1046C00082E84008F0DD204629462BAA02F0AAFC29
:1046D00000287FF4CDAEAAF1100ABAF1100F2D997F
:1046E0002C9B38AAE7DC0A9C35468C4616460133DB
:1046F000D444072BCDF8B4C02C9386E8200400F3F3
:1047000037830836099DED0500F126822C9B376022
:104710000133A444072BCDF8B4C074602C9300F38C
:1047200011830836099C630749D50F9D0B982C1AF5
:10473000002C44DD102C2C9BDFF81CA02BDD5746F1
:1047400010256246DDF83080DDF834A00BE000BFB4
:104750002C7B0000F87A00004C7B0000103C102CF1
:1047600006F1080615DD01331032072B2D922C932C
:1047700037607560F2DD504641462BAA02F052FCCC
:1047800000287FF475AE103C102C2D9A2C9B38AE6F
:10479000E9DC9446BA460133A444072BCDF8B4C0F3
:1047A0002C93C6F800A0746009DD0D980C992BAA13
:1047B00002F038FC00287FF45BAEDDF8B4C00E9C3C
:1047C0000B980F9DA842ACBF241864190E94BCF13D
:1047D000000F40F0C38200232C9338AE56E599F8C1
:1047E0000080002A7FF488AD202285E5099D45F0F0
:1047F0000105099599F800807EE5099D45F0800541
:10480000099599F8008077E50024A8F130030F940A
:10481000214619F8018B01EB810103EB4101A8F15D
:104820003003092BF5D90F9168E5DDF824C08DF828
:104830008F204CF0100CCDF824C0099CA30640F149
:10484000B280109DE91D21F00701D1E90023083154
:10485000109114461D46002A73F10000C0F28B83AC
:104860009DF88FA0012359E6099DB74C8DF88F2044
:10487000AF061A943FF52FAE099DED0640F15D8419
:10488000DDF840C0DCF800400CF1040CCDF840C06D
:1048900000252BE6DDF824C08DF88F201CF0200FBA
:1048A00000F03D84109C21680E9CE5172B46109D5E
:1048B000224604351095C1E90023E7E4109C2768DF
:1048C0004FF0000A8DF88FA0251D002F00F0F58510
:1048D0000A9C002C3846C0F2A7855146224602F0B9
:1048E00027F8002800F01F860A9C1095C01BA042E4
:1048F000B8BF044624EAE475CDF828A0CDF850A04E
:104900000B959DF88FA032E6DDF824C04CF0400CEA
:10491000CDF824C099F80080EEE499F80080B8F151
:104920006C0F4B4600F08B84099D45F010050995EE
:10493000E2E4109C109D24680F94002C05F1040300
:10494000FFF67CAD109399F80080D5E4109ADDF85D
:1049500024C07E4814681A903023151D4FF0780843
:104960004CF0020C8DF890301095CDF824C0002545
:104970008DF891800223CDE5109A109D12688DF874
:10498000B8200023012404359A460B9410958DF825
:104990008F300A9314932EAFEFE5099C8DF88F208A
:1049A000A3063FF54EAFDDF824C01CF0100F40F019
:1049B000D282099C670640F1CE82DDF840C0BCF986
:1049C00000400CF1040CE51722462B46CDF840C000
:1049D00041E799F800802B228EE4099D45F00805F7
:1049E000099599F8008087E4109D099C8DF88F2027
:1049F000EB1D250723F0070340F18A83D3E9004527
:104A0000CDE9164503F1080CCDF840C0DDE91601EB
:104A100002F0E0FA0128DDE9160140F05F83002290
:104A20000023FEF7F7FC002840F06D859DF88FA06D
:104A300003250B95099D464F464B25F08005002424
:104A4000099500250A94B8F1470FD8BF1F460324E3
:104A500014958CE5DDF824C04CF0200CCDF824C072
:104A600099F8008048E4109CE31D23F0070303F14C
:104A700008051095D3E9004500234BE5109DEB1D7B
:104A800023F0070303F1080CD3E90045CDF840C03B
:104A900001233FE58DF88F20B8F1000F3FF4E1AC22
:104AA00000234FF0010C9A46CDF82CC08DF8B88049
:104AB0008DF88F300A93149364462EAF5DE5DDF8D0
:104AC000B4C0B5E5012B00F0EC80022B0DF1DF0343
:104AD00018D1DDF868C0194604F00F00220942EA37
:104AE00005720F462B091CF80010397052EA0300BA
:104AF00014461D4607F1FF31EED1089DCDE91E2376
:104B0000EC1B2BE5E00840EA457004F00702E908D9
:104B1000303250EA010C1F461A7004460D4603F16C
:104B2000FF33EFD1099CCDE91C01E007394640F184
:104B3000C180302A00F0BE80089D1F463023EC1B48
:104B400001F8013C0AE500BF187B00002C7B000047
:104B50000C7B0000087B0000B8F1650F40F3AD80CE
:104B6000DDE9160100220023CDF81CC0FEF748FC49
:104B7000DDF81CC0002800F026812C9BAA4A326078
:104B800001330CF1010C0122072BCDF8B4C02C939A
:104B9000726000F3F7820836259B119CA34203DB69
:104BA000099DEC077FF5BEAD2C9B189D159C3460CC
:104BB0000133AC44072BCDF8B4C075602C9300F3DF
:104BC00048830836119D6C1E002C7FF7ABAD102C6E
:104BD0002C9B964D40F3978110276246DDF8348078
:104BE000DDF830A004E00836103C102C40F38A8138
:104BF00001331032072B2D922C9386E8A000F2DDB2
:104C0000404651462BAA02F00DFA00287FF430AC42
:104C10002D9A2C9B38AEE7E70F9D0B98C0EB050A49
:104C2000BAF1000F7FF72CADBAF1100F2C9B7F4D1E
:104C30002BDD129432464FF0100B2E4661460D9C30
:104C40000C9D06E0AAF1100ABAF1100F02F1080259
:104C500017DD01331031072B2D912C9382E840088A
:104C6000F0DD204629462BAA02F0DCF900287FF46B
:104C7000FFABAAF1100ABAF1100F2D992C9B38AA9C
:104C8000E7DC129C35468C4616460133D444072B8C
:104C9000CDF8B4C02C9386E8200400F312820836C5
:104CA000EEE4002D08BF0A2C80F0388148AF303484
:104CB00007F8414D089DEC1B50E4119C012C2C9CE5
:104CC00040F3D58101340CF101030122072C376038
:104CD0002D932C94726000F3DB810836DDF8608040
:104CE000159D356001349844189DCDF8B480072C8B
:104CF0002C94756000F3D8810836DDE91601002296
:104D00000023FEF77DFB119D002840F0B9806B1E4B
:104D1000013401379844072C2C94CDF8B4803760C7
:104D2000736000F3E2800836DDF864C0199D013439
:104D3000C44427AB072CCDF8B4C02C9486E82800D7
:104D40007FF7EFAC0D980C992BAA02F06BF90028B5
:104D50007FF48EABDDF8B4C038AEE3E40D980C9967
:104D60002BAA02F05FF900283FF435ADFFF780BBB6
:104D70000D980C992BAA02F055F900287FF478AB16
:104D8000DDF8B4C038AEBDE40D980C992BAA02F042
:104D900049F900287FF46CABDDF8B4C038AE5AE4B2
:104DA0000D980C992BAA02F03DF900287FF460AB16
:104DB000DDF8B4C038AE5FE40A9C38AFFFF7CEBB75
:104DC0000223FFF7A7BB259B002B40F3E781119C33
:104DD000149DDDF844A0AC42A8BF2C46002CBA4478
:104DE0000BDD2C9B37600133A444072BCDF8B4C0F6
:104DF00074602C9300F328830836149D24EAE4742D
:104E00002C1B002C40F3DB80102C2C9B074D40F317
:104E1000AD810A974FF010082F4662462546DDF80F
:104E200034B00C9C09E000BF487B0000F87A000019
:104E30000836103D102D40F3958101331032072BB9
:104E40002D922C9386E88001F2DD584621462BAA4C
:104E500002F0E8F800287FF40BAB2D9A2C9B38AEBB
:104E6000E7E70D980C992BAA02F0DCF800287FF4F4
:104E7000FFAA9DF88FA0DDF8B4C038AEFFF7D8BB0D
:104E80006F1E002F7FF750AF102FB34D23DD434629
:104E90004FF0100ADDF83480DDF830B004E0103F48
:104EA000102F06F1080615DD01341033072C2D9361
:104EB0002C9486E82004F2DD404659462BAA02F0E5
:104EC000B1F800287FF4D4AA103F102F2D9B2C9C02
:104ED00038AEE9DC98460134B844072CCDF8B480EC
:104EE0002C9486E8A0007FF71EAF0D980C992BAA92
:104EF00002F098F800287FF4BBAADDF8B4802C9C5F
:104F000038AE11E794460133A444072BCDF8B4C062
:104F10002C93356074607FF704AC13E70DF1DF0B61
:104F2000204629460A22002302F0A8F930328BF8E5
:104F30000020204629460A22002302F09FF9044659
:104F40000D4654EA050C5F460BF1FF3BE8D1089D86
:104F5000EC1BFFF703BB109DDDF840C02C68E51784
:104F600022462B460CF1040C002A73F10000CDF808
:104F700040C0BFF675AC4FF02D0A644265EB4505A5
:104F80008DF88FA00123FFF7C9BA109D2C68043556
:104F900010950025FFF7BEBA109D2C6804351095BA
:104FA00001230025FFF7B6BA0D980C992BAA02F041
:104FB00039F800287FF45CAADDF8B4C038AE149D3F
:104FC000259C2F44119DAC4242DB099DE9073FD44B
:104FD0001198C7EB0A05041BAC42B8BF2546002D4B
:104FE0000BDD2C9B37600133AC44072BCDF8B4C0EC
:104FF00075602C9300F35282083625EAE575641B30
:10500000002C7FF78FAB102C2C9B534D7FF77BAF81
:1050100010276246DDF83480DDF830A004E0083661
:10502000103C102C7FF76EAF01331032072B2D92FE
:105030002C9386E8A000F2DD404651462BAA01F0F1
:10504000F1FF00287FF414AA2D9A2C9B38AEE7E7D5
:105050002C9B159D3560189D75600133AC44072B62
:10506000CDF8B4C02C9300F3FB810836B0E7099D5E
:10507000EA073FF527AE01340CF101080123072CA4
:10508000CDF8B4802C94376073607FF74CAE2CE77A
:105090000D980C992BAA01F0C5FF00287FF4E8A910
:1050A0002D9B2C9C38AE19E60D980C992BAA01F07B
:1050B000B9FF00287FF4DCA9DDF8B4802C9C38AE61
:1050C0001BE60D980C992BAA01F0ACFF00287FF489
:1050D000CFA9DDF8B4C038AEFFF7D2BA01F07AFF3D
:1050E000002840F0C280099C1C4F1D4B9DF88FA0EA
:1050F0000A904FF0030C24F080040994CDF82CC0E2
:105100001490B8F1470FD8BF1F466446FFF72FBA77
:10511000D3E900450833CDE91645109376E4DDF870
:1051200024C01CF0100F00F05581109C0E9D2368C8
:10513000043410941D60FFF7A9B8099C640640F17F
:105140004281DDF840C0BCF800400CF1040C0025A1
:10515000CDF840C0FFF7CAB9F87A0000147B000010
:10516000107B00002C463D460A9F94460133A44420
:10517000072BCDF8B4C02C93356074603FF714AFA3
:1051800008361CE70D980C992BAA01F04BFF00285C
:105190007FF46EA9DDF8B4C038AEFDE42C9AB749AF
:1051A000316001320CF1010C0121072ACDF8B4C0A5
:1051B0002C92716000F3F78008361C462CB9119DC3
:1051C0001DB9099DE8077FF5ADAA2C9B1899159D7F
:1051D000356001336144189D2D91072B75602C9328
:1051E00000F3DE8106F108026442002C40F30B81DB
:1051F000102CA34D40F34881A34610260C46DDF841
:105200003480DDF830A006E00832ABF1100BBBF1C2
:10521000100F40F3378101331034072B2D942C935A
:1052200082E86000F0DD404651462BAA01F0FAFE0C
:1052300000287FF41DA92D9C2C9B38AAE5E7099C2A
:1052400093F8018044F0200409F101090994FFF763
:1052500053B80D980C992BAA01F0E4FE00287FF4B6
:1052600007A9DDF8B4C038AEACE40A9D013528F0DA
:10527000200A00F0A580BAF1470F04D10A9D002D45
:1052800008BF01250A95DDE91623DDF824C0002BAF
:105290004CF4807CCDF848C0C0F29C81DDE9164515
:1052A000CDE920454FF0000BB8F1660F00F09B816F
:1052B000B8F1460F00F0A981BAF1450F0ABF0A9C68
:1052C0000A9D651C022025A926AA29AB8DE821008C
:1052D0000392049302910D98DDE9202300F0D4FAA3
:1052E000B8F1670F074602D0B8F1470F05D1DDF8D6
:1052F00024C01CF0010F00F09C81BAF1460F07EBAF
:10530000050400F01C81DDE9200100220023FEF7E6
:1053100077F8002840F00581299B9C4206D930216E
:105320005A1C29921970299B9C42F9D8DB1BBAF1AF
:10533000470F119300F0ED80B8F1650F40F3F28153
:10534000B8F1660F00F06881259C1494119C149D9F
:10535000AC4200F33281DDF824C01CF0010F40F0B4
:10536000AD8125EAE5732C464FF06708BBF1000FCD
:1053700040F0B280129D0B930995CDF828B09DF8AE
:105380008FA0FFF7F4B80D984021FEF7C1F9206017
:105390002061002800F0BF81DDF830C04023CCF848
:1053A0001430FEF763BF0D980C992BAA01F03AFE5A
:1053B00000287FF45DA8259CDDF8B4C038AEFDE67A
:1053C00006240A945FE7109D2C680435109500258B
:1053D000FFF78CB8DDF824C01CF0400F00F0878088
:1053E000109C0E9D2368043410941D80FEF74EBF60
:1053F0000D980C992BAA01F015FE00287FF438A80F
:105400002D992C9B38AADDF844C0119C17600133FC
:105410008C44072BCDF8B4C02C9354603FF792AC6A
:1054200002F10806FFF77EB9CDF828A0FEF7D8FEF6
:10543000109520EAE07C0A9DCDF82CC00446149516
:105440009DF88FA0FFF793B80D980C992BAA01F047
:10545000E9FD00287FF40CA8DDF8B4C038AECCE438
:105460000D980C992BAA01F0DDFD00287FF400A80F
:10547000259CDDF8B4C038AEAAE500BF487B00002B
:10548000F87A000021465C4601332144072B2D9118
:105490002C9315605460ABDC0832B4E70D980C997E
:1054A0002BAA01F0BFFD00287EF4E2AF259C1199E4
:1054B000DDF8B4C00C1B38AE9FE50A9C1497062C8F
:1054C00028BF062424EAE47CBA460A971095CDF852
:1054D0002CC0974FFFF74BB8129D09954FF02D0A3E
:1054E00000250B938DF88FA00A95FFF743B8DDF8E0
:1054F00040C00E9CDCF800300CF1040CCDF840C02C
:105500001C60FEF7C3BE4FF02D0A8DF88FA0FFF789
:105510008FBA259BDC1C19DB0A9C9C4216DB14937A
:1055200014E7234602E724EAE47CCDF82CC00A9C69
:1055300010950A9014909DF88FA0FFF718B83B784B
:10554000302B00F0AD80259D2C44DCE6A8F102084C
:10555000013B002B2593BABF5B422D222B22092B46
:105560008DF89C808DF89D2065DC303330228DF8DD
:105570009F308DF89E2028AB119D119C27AA9A1A66
:10558000012D1992144440F3B7800134002524EA18
:10559000E4731495EAE6002481460A94FEF7AEBE51
:1055A0000D980C992BAA01F03DFD00287EF460AF08
:1055B000259C2D992C9B38AA16E6149C119D002C35
:1055C000D4BFC4F1020401242C4424EAE4734FF054
:1055D0006708CBE617991698209001F100412191B8
:1055E0004FF02D0B60E60A9D0195032025A926AA00
:1055F00029AB00900392049302910D98DDE92023DA
:1056000000F042F90A9D074677E60A9C01940320C0
:1056100025A926AA29ABECE7259D1495002D0A9C07
:1056200063DDB4BB099DE80733D4149C24EAE4731A
:105630009CE6299B7AE60DF1AA003E4DDA1785FB20
:105640000351C2EBA10101EB81040246A3EB440329
:1056500003F13000092910700B4602F1FF30ECDC39
:1056600001F130030DF1AB04D9B2844202F8011C00
:105670005AD90DF19D00134601E013F8011BA34216
:1056800000F8011FF9D10DF5907CC2EB4C03F63BFD
:1056900072E70A9D6C1C149D2C4424EAE47365E6B1
:1056A000DDE9200100220023FDF7AAFE00287FF497
:1056B0004AAFC5F1010525952C4424E6149D6C1CC8
:1056C00024EAE4734FF0670850E6109DDDF840C00F
:1056D0002D6899F801800A950CF10403002D1093B0
:1056E0008146BEF609AEFEF704BE7CB9099DE90706
:1056F0000CD401231C4639E6DDF824C01CF001035C
:105700007FF443AF149324EAE4732FE60A9DAC1CA4
:1057100024EAE4732AE60D9D0C232B604FF0FF3042
:10572000FEF7AEBE259B13E70DF19E0324E700BFF5
:10573000407B000067666666024B13B1024800F0CA
:1057400005B8704700000000C16600000146002057
:105750000246034601F0E6BC2DE9F04F03690D69EE
:105760009D4283B0834600F38B80013D01F1140418
:1057700000F1140A54F825205AF825300132B3FB01
:10578000F2F8AA00914600925244A1440192B8F165
:10579000000F3DD04FF0000E7046224653468C4617
:1057A00052F8046B1968B7B2360C07FB08EE06FB1B
:1057B00008F606EB1E461FFA8EF7C71BB0B217FAA3
:1057C00081F7C0EB114000EB2740BFB247EA00472A
:1057D000914543F8047B4FEA20404FEA164EDFD252
:1057E000009A5AF80230614693B9019A131F9A45FC
:1057F0000CD252F8043C4BB9A2F1080302E01A683B
:10580000043B1AB99A4505F1FF35F8D3CBF810508F
:10581000584601F0F3FA00282EDB08F10108534640
:10582000002254F8046B1868B1B2521A360C12FAFE
:1058300080F1C6EB104202EB214289B241EA0241FB
:10584000A14543F8041B4FEA2242EAD25AF8252028
:105850000AEB850382B91A1F92450BD253F8042C28
:1058600042B9083B02E01A68043B1AB99A4505F1AF
:10587000FF35F8D3CBF81050404603B0BDE8F08FA9
:10588000002003B0BDE8F08F2DE9F04F016C9BB014
:105890000446279D92469B4649B1436C4B600122CA
:1058A00002FA03F38B6001F0B1F800232364BBF12B
:1058B000000FD94633DB00232B60A54B1A4609EABB
:1058C0000303934214D05046594600220023FDF7AB
:1058D00097FD804648B3269E289D01233360002D06
:1058E00000F0C9809B48286001381BB0BDE8F08FEC
:1058F000269D42F20F732B60BAF1000F00F0A480D6
:105900009548289E002EF0D0C378002B00F0B5807B
:1059100000F10803289D2B601BB0BDE8F08F012328
:105920002BF000492B60CB46C7E719AA18AB8DE8CE
:105930000C00204652465B4601F0EEFA5FEA19552C
:105940000A9040F08A80189F199D6FF482633D444D
:105950009D42C0F294821F3305F212425B1B09FA8A
:1059600003F32AFA02F243EA0200FDF76BFA01267A
:10597000013DB846A1F1F87116960022774BFDF76C
:1059800023F96DA3D3E90023FDF7D2FA6CA3D3E981
:105990000023FDF71BF9064628460F46FDF762FA7D
:1059A00069A3D3E90023FDF7C3FA02460B4630464C
:1059B0003946FDF70BF906460F4601F037FC39462C
:1059C0000790002230460023FDF724FD002840F018
:1059D0002882079E162E00F22182614B03EBC6033C
:1059E000D3E9000152465B46FDF732FD002800F086
:1059F0004B82013E079600260E96C5EB0805013D39
:105A0000069500F1258200250895079E002EC0F21C
:105A10001682069D0D963544002606950C96249D0B
:105A2000092D2CD8052DC4BF043D2495249EA6F134
:105A30000203CCBF00250125032B22D8DFE813F099
:105A4000B7039E02C0039A04464A434BC9F31300AE
:105A500000280CBF1046184653E7CBF3130343F05E
:105A60007F51CDF858805046A5F2FF3541F44011E2
:105A7000DDF8608081E73C4837E7C31C4AE7002532
:105A80002495002565642946204600F099FF4FF0D3
:105A9000FF390126099025952064CDF83C900B969E
:105AA000199B002BC0F2D280079E0E2E00F3CE80F1
:105AB0002B4B03EBC603D3E90001CDE90401259983
:105AC0000029C0F28083DDE9042359465046FDF7E2
:105AD00059FB01F0ABFB0546FDF7C4F9DDE90423F2
